{
  "contractName": "ImageNFT",
  "abi": [
    {
      "anonymous": false,
      "inputs": [
        {
          "indexed": false,
          "internalType": "address",
          "name": "previousAdmin",
          "type": "address"
        },
        {
          "indexed": false,
          "internalType": "address",
          "name": "newAdmin",
          "type": "address"
        }
      ],
      "name": "AdminChanged",
      "type": "event"
    },
    {
      "anonymous": false,
      "inputs": [
        {
          "indexed": true,
          "internalType": "address",
          "name": "owner",
          "type": "address"
        },
        {
          "indexed": true,
          "internalType": "address",
          "name": "approved",
          "type": "address"
        },
        {
          "indexed": true,
          "internalType": "uint256",
          "name": "tokenId",
          "type": "uint256"
        }
      ],
      "name": "Approval",
      "type": "event"
    },
    {
      "anonymous": false,
      "inputs": [
        {
          "indexed": true,
          "internalType": "address",
          "name": "owner",
          "type": "address"
        },
        {
          "indexed": true,
          "internalType": "address",
          "name": "operator",
          "type": "address"
        },
        {
          "indexed": false,
          "internalType": "bool",
          "name": "approved",
          "type": "bool"
        }
      ],
      "name": "ApprovalForAll",
      "type": "event"
    },
    {
      "anonymous": false,
      "inputs": [
        {
          "indexed": true,
          "internalType": "address",
          "name": "beacon",
          "type": "address"
        }
      ],
      "name": "BeaconUpgraded",
      "type": "event"
    },
    {
      "anonymous": false,
      "inputs": [
        {
          "indexed": false,
          "internalType": "uint8",
          "name": "version",
          "type": "uint8"
        }
      ],
      "name": "Initialized",
      "type": "event"
    },
    {
      "anonymous": false,
      "inputs": [
        {
          "indexed": true,
          "internalType": "address",
          "name": "previousOwner",
          "type": "address"
        },
        {
          "indexed": true,
          "internalType": "address",
          "name": "newOwner",
          "type": "address"
        }
      ],
      "name": "OwnershipTransferred",
      "type": "event"
    },
    {
      "anonymous": false,
      "inputs": [
        {
          "indexed": true,
          "internalType": "address",
          "name": "from",
          "type": "address"
        },
        {
          "indexed": true,
          "internalType": "address",
          "name": "to",
          "type": "address"
        },
        {
          "indexed": true,
          "internalType": "uint256",
          "name": "tokenId",
          "type": "uint256"
        }
      ],
      "name": "Transfer",
      "type": "event"
    },
    {
      "anonymous": false,
      "inputs": [
        {
          "indexed": true,
          "internalType": "address",
          "name": "implementation",
          "type": "address"
        }
      ],
      "name": "Upgraded",
      "type": "event"
    },
    {
      "inputs": [],
      "name": "_tokenIds",
      "outputs": [
        {
          "internalType": "uint256",
          "name": "_value",
          "type": "uint256"
        }
      ],
      "stateMutability": "view",
      "type": "function",
      "constant": true
    },
    {
      "inputs": [
        {
          "internalType": "address",
          "name": "to",
          "type": "address"
        },
        {
          "internalType": "uint256",
          "name": "tokenId",
          "type": "uint256"
        }
      ],
      "name": "approve",
      "outputs": [],
      "stateMutability": "nonpayable",
      "type": "function"
    },
    {
      "inputs": [
        {
          "internalType": "address",
          "name": "owner",
          "type": "address"
        }
      ],
      "name": "balanceOf",
      "outputs": [
        {
          "internalType": "uint256",
          "name": "",
          "type": "uint256"
        }
      ],
      "stateMutability": "view",
      "type": "function",
      "constant": true
    },
    {
      "inputs": [
        {
          "internalType": "uint256",
          "name": "tokenId",
          "type": "uint256"
        }
      ],
      "name": "getApproved",
      "outputs": [
        {
          "internalType": "address",
          "name": "",
          "type": "address"
        }
      ],
      "stateMutability": "view",
      "type": "function",
      "constant": true
    },
    {
      "inputs": [
        {
          "internalType": "uint256",
          "name": "",
          "type": "uint256"
        }
      ],
      "name": "imageStorage",
      "outputs": [
        {
          "internalType": "string",
          "name": "tokenName",
          "type": "string"
        },
        {
          "internalType": "string",
          "name": "tokenURI",
          "type": "string"
        },
        {
          "internalType": "string",
          "name": "tokenCID",
          "type": "string"
        },
        {
          "internalType": "address",
          "name": "mintedBy",
          "type": "address"
        },
        {
          "internalType": "address",
          "name": "currentOwner",
          "type": "address"
        },
        {
          "internalType": "uint256",
          "name": "highestBidPrice",
          "type": "uint256"
        },
        {
          "internalType": "uint256",
          "name": "royalties",
          "type": "uint256"
        },
        {
          "internalType": "uint256",
          "name": "tokenID",
          "type": "uint256"
        },
        {
          "internalType": "bool",
          "name": "isKRW",
          "type": "bool"
        },
        {
          "internalType": "enum Lib.Status",
          "name": "status",
          "type": "uint8"
        }
      ],
      "stateMutability": "view",
      "type": "function",
      "constant": true
    },
    {
      "inputs": [
        {
          "internalType": "address",
          "name": "owner",
          "type": "address"
        },
        {
          "internalType": "address",
          "name": "operator",
          "type": "address"
        }
      ],
      "name": "isApprovedForAll",
      "outputs": [
        {
          "internalType": "bool",
          "name": "",
          "type": "bool"
        }
      ],
      "stateMutability": "view",
      "type": "function",
      "constant": true
    },
    {
      "inputs": [],
      "name": "name",
      "outputs": [
        {
          "internalType": "string",
          "name": "",
          "type": "string"
        }
      ],
      "stateMutability": "view",
      "type": "function",
      "constant": true
    },
    {
      "inputs": [],
      "name": "owner",
      "outputs": [
        {
          "internalType": "address",
          "name": "",
          "type": "address"
        }
      ],
      "stateMutability": "view",
      "type": "function",
      "constant": true
    },
    {
      "inputs": [
        {
          "internalType": "uint256",
          "name": "tokenId",
          "type": "uint256"
        }
      ],
      "name": "ownerOf",
      "outputs": [
        {
          "internalType": "address",
          "name": "",
          "type": "address"
        }
      ],
      "stateMutability": "view",
      "type": "function",
      "constant": true
    },
    {
      "inputs": [],
      "name": "proxiableUUID",
      "outputs": [
        {
          "internalType": "bytes32",
          "name": "",
          "type": "bytes32"
        }
      ],
      "stateMutability": "view",
      "type": "function",
      "constant": true
    },
    {
      "inputs": [],
      "name": "renounceOwnership",
      "outputs": [],
      "stateMutability": "nonpayable",
      "type": "function"
    },
    {
      "inputs": [
        {
          "internalType": "address",
          "name": "from",
          "type": "address"
        },
        {
          "internalType": "address",
          "name": "to",
          "type": "address"
        },
        {
          "internalType": "uint256",
          "name": "tokenId",
          "type": "uint256"
        }
      ],
      "name": "safeTransferFrom",
      "outputs": [],
      "stateMutability": "nonpayable",
      "type": "function"
    },
    {
      "inputs": [
        {
          "internalType": "address",
          "name": "from",
          "type": "address"
        },
        {
          "internalType": "address",
          "name": "to",
          "type": "address"
        },
        {
          "internalType": "uint256",
          "name": "tokenId",
          "type": "uint256"
        },
        {
          "internalType": "bytes",
          "name": "data",
          "type": "bytes"
        }
      ],
      "name": "safeTransferFrom",
      "outputs": [],
      "stateMutability": "nonpayable",
      "type": "function"
    },
    {
      "inputs": [
        {
          "internalType": "address",
          "name": "operator",
          "type": "address"
        },
        {
          "internalType": "bool",
          "name": "approved",
          "type": "bool"
        }
      ],
      "name": "setApprovalForAll",
      "outputs": [],
      "stateMutability": "nonpayable",
      "type": "function"
    },
    {
      "inputs": [
        {
          "internalType": "bytes4",
          "name": "interfaceId",
          "type": "bytes4"
        }
      ],
      "name": "supportsInterface",
      "outputs": [
        {
          "internalType": "bool",
          "name": "",
          "type": "bool"
        }
      ],
      "stateMutability": "view",
      "type": "function",
      "constant": true
    },
    {
      "inputs": [],
      "name": "symbol",
      "outputs": [
        {
          "internalType": "string",
          "name": "",
          "type": "string"
        }
      ],
      "stateMutability": "view",
      "type": "function",
      "constant": true
    },
    {
      "inputs": [
        {
          "internalType": "address",
          "name": "from",
          "type": "address"
        },
        {
          "internalType": "address",
          "name": "to",
          "type": "address"
        },
        {
          "internalType": "uint256",
          "name": "tokenId",
          "type": "uint256"
        }
      ],
      "name": "transferFrom",
      "outputs": [],
      "stateMutability": "nonpayable",
      "type": "function"
    },
    {
      "inputs": [
        {
          "internalType": "address",
          "name": "newOwner",
          "type": "address"
        }
      ],
      "name": "transferOwnership",
      "outputs": [],
      "stateMutability": "nonpayable",
      "type": "function"
    },
    {
      "inputs": [
        {
          "internalType": "address",
          "name": "newImplementation",
          "type": "address"
        }
      ],
      "name": "upgradeTo",
      "outputs": [],
      "stateMutability": "nonpayable",
      "type": "function"
    },
    {
      "inputs": [
        {
          "internalType": "address",
          "name": "newImplementation",
          "type": "address"
        },
        {
          "internalType": "bytes",
          "name": "data",
          "type": "bytes"
        }
      ],
      "name": "upgradeToAndCall",
      "outputs": [],
      "stateMutability": "payable",
      "type": "function",
      "payable": true
    },
    {
      "inputs": [],
      "name": "initialize",
      "outputs": [],
      "stateMutability": "nonpayable",
      "type": "function"
    },
    {
      "inputs": [
        {
          "internalType": "uint256",
          "name": "tokenId",
          "type": "uint256"
        }
      ],
      "name": "tokenURI",
      "outputs": [
        {
          "internalType": "string",
          "name": "",
          "type": "string"
        }
      ],
      "stateMutability": "view",
      "type": "function",
      "constant": true
    },
    {
      "inputs": [
        {
          "internalType": "string",
          "name": "tokenName",
          "type": "string"
        },
        {
          "internalType": "string",
          "name": "ipfsHashOfPhoto",
          "type": "string"
        },
        {
          "internalType": "string",
          "name": "tokenCID",
          "type": "string"
        },
        {
          "internalType": "uint32",
          "name": "newSale",
          "type": "uint32"
        }
      ],
      "name": "mintImageNFT",
      "outputs": [],
      "stateMutability": "nonpayable",
      "type": "function"
    },
    {
      "inputs": [
        {
          "internalType": "uint256",
          "name": "_tokenID",
          "type": "uint256"
        },
        {
          "internalType": "enum Lib.Status",
          "name": "status",
          "type": "uint8"
        }
      ],
      "name": "updateStatus",
      "outputs": [],
      "stateMutability": "nonpayable",
      "type": "function"
    },
    {
      "inputs": [
        {
          "internalType": "uint256",
          "name": "_tokenID",
          "type": "uint256"
        },
        {
          "internalType": "address",
          "name": "newOwner",
          "type": "address"
        }
      ],
      "name": "updateOwner",
      "outputs": [],
      "stateMutability": "nonpayable",
      "type": "function"
    },
    {
      "inputs": [
        {
          "internalType": "uint256",
          "name": "_tokenID",
          "type": "uint256"
        },
        {
          "internalType": "uint256",
          "name": "newPrice",
          "type": "uint256"
        }
      ],
      "name": "updatePrice",
      "outputs": [],
      "stateMutability": "nonpayable",
      "type": "function"
    },
    {
      "inputs": [
        {
          "internalType": "uint256",
          "name": "_tokenID",
          "type": "uint256"
        },
        {
          "internalType": "bool",
          "name": "_isKRW",
          "type": "bool"
        }
      ],
      "name": "updateKRW",
      "outputs": [],
      "stateMutability": "nonpayable",
      "type": "function"
    },
    {
      "inputs": [
        {
          "internalType": "address",
          "name": "owner",
          "type": "address"
        }
      ],
      "name": "getOwnedNumber",
      "outputs": [
        {
          "internalType": "uint256",
          "name": "",
          "type": "uint256"
        }
      ],
      "stateMutability": "view",
      "type": "function",
      "constant": true
    },
    {
      "inputs": [
        {
          "internalType": "uint256",
          "name": "tokenId",
          "type": "uint256"
        }
      ],
      "name": "ImageDate",
      "outputs": [
        {
          "components": [
            {
              "internalType": "string",
              "name": "tokenName",
              "type": "string"
            },
            {
              "internalType": "string",
              "name": "tokenURI",
              "type": "string"
            },
            {
              "internalType": "string",
              "name": "tokenCID",
              "type": "string"
            },
            {
              "internalType": "address",
              "name": "mintedBy",
              "type": "address"
            },
            {
              "internalType": "address",
              "name": "currentOwner",
              "type": "address"
            },
            {
              "internalType": "uint256",
              "name": "highestBidPrice",
              "type": "uint256"
            },
            {
              "internalType": "uint256",
              "name": "royalties",
              "type": "uint256"
            },
            {
              "internalType": "uint256",
              "name": "tokenID",
              "type": "uint256"
            },
            {
              "internalType": "bool",
              "name": "isKRW",
              "type": "bool"
            },
            {
              "internalType": "enum Lib.Status",
              "name": "status",
              "type": "uint8"
            }
          ],
          "internalType": "struct Lib.Image",
          "name": "",
          "type": "tuple"
        }
      ],
      "stateMutability": "view",
      "type": "function",
      "constant": true
    },
    {
      "inputs": [
        {
          "internalType": "uint256",
          "name": "tokenId",
          "type": "uint256"
        }
      ],
      "name": "Burn",
      "outputs": [],
      "stateMutability": "nonpayable",
      "type": "function"
    }
  ],
  "bytecode": "0x60a06040523073ffffffffffffffffffffffffffffffffffffffff1660809073ffffffffffffffffffffffffffffffffffffffff1681525034801561004357600080fd5b5060805161534461007b60003960008181610a7b01528181610b0901528181610c6c01528181610cfa0152610daa01526153446000f3fe6080604052600436106101cd5760003560e01c8063767e0363116100f7578063aa46a40011610095578063dc471a6b11610064578063dc471a6b14610661578063e985e9c5146106a7578063ec62b07e146106e4578063f2fde38b1461070d576101cd565b8063aa46a400146105a7578063b88d4fde146105d2578063b90306ad146105fb578063c87b56dd14610624576101cd565b80638da5cb5b116100d15780638da5cb5b146104eb57806395d89b4114610516578063a22cb46514610541578063a92aa0261461056a576101cd565b8063767e0363146104825780638129fc1c146104ab57806382367b2d146104c2576101cd565b80633a1b3d311161016f5780636352211e1161013e5780636352211e146103c857806370a0823114610405578063715018a6146104425780637192711f14610459576101cd565b80633a1b3d311461032f57806342842e0e146103585780634f1ef2861461038157806352d1902d1461039d576101cd565b8063095ea7b3116101ab578063095ea7b31461027757806323b872dd146102a05780633527bb0a146102c95780633659cfe614610306576101cd565b806301ffc9a7146101d257806306fdde031461020f578063081812fc1461023a575b600080fd5b3480156101de57600080fd5b506101f960048036038101906101f491906134e5565b610736565b604051610206919061352d565b60405180910390f35b34801561021b57600080fd5b50610224610818565b60405161023191906135e1565b60405180910390f35b34801561024657600080fd5b50610261600480360381019061025c9190613639565b6108aa565b60405161026e91906136a7565b60405180910390f35b34801561028357600080fd5b5061029e600480360381019061029991906136ee565b6108f0565b005b3480156102ac57600080fd5b506102c760048036038101906102c2919061372e565b610a07565b005b3480156102d557600080fd5b506102f060048036038101906102eb9190613781565b610a67565b6040516102fd91906137bd565b60405180910390f35b34801561031257600080fd5b5061032d60048036038101906103289190613781565b610a79565b005b34801561033b57600080fd5b50610356600480360381019061035191906137fd565b610c01565b005b34801561036457600080fd5b5061037f600480360381019061037a919061372e565b610c4a565b005b61039b60048036038101906103969190613972565b610c6a565b005b3480156103a957600080fd5b506103b2610da6565b6040516103bf91906139e7565b60405180910390f35b3480156103d457600080fd5b506103ef60048036038101906103ea9190613639565b610e5f565b6040516103fc91906136a7565b60405180910390f35b34801561041157600080fd5b5061042c60048036038101906104279190613781565b610f10565b60405161043991906137bd565b60405180910390f35b34801561044e57600080fd5b50610457610fc7565b005b34801561046557600080fd5b50610480600480360381019061047b9190613a02565b610fdb565b005b34801561048e57600080fd5b506104a960048036038101906104a49190613b1f565b61104e565b005b3480156104b757600080fd5b506104c061137f565b005b3480156104ce57600080fd5b506104e960048036038101906104e49190613bda565b611541565b005b3480156104f757600080fd5b50610500611567565b60405161050d91906136a7565b60405180910390f35b34801561052257600080fd5b5061052b611592565b60405161053891906135e1565b60405180910390f35b34801561054d57600080fd5b5061056860048036038101906105639190613c46565b611624565b005b34801561057657600080fd5b50610591600480360381019061058c9190613639565b61163a565b60405161059e9190613e5c565b60405180910390f35b3480156105b357600080fd5b506105bc611945565b6040516105c991906137bd565b60405180910390f35b3480156105de57600080fd5b506105f960048036038101906105f49190613e7e565b611952565b005b34801561060757600080fd5b50610622600480360381019061061d9190613639565b6119b4565b005b34801561063057600080fd5b5061064b60048036038101906106469190613639565b611a95565b60405161065891906135e1565b60405180910390f35b34801561066d57600080fd5b5061068860048036038101906106839190613639565b611b6f565b60405161069e9a99989796959493929190613f10565b60405180910390f35b3480156106b357600080fd5b506106ce60048036038101906106c99190613fc1565b611db6565b6040516106db919061352d565b60405180910390f35b3480156106f057600080fd5b5061070b60048036038101906107069190614001565b611e4a565b005b34801561071957600080fd5b50610734600480360381019061072f9190613781565b611e83565b005b60007f80ac58cd000000000000000000000000000000000000000000000000000000007bffffffffffffffffffffffffffffffffffffffffffffffffffffffff1916827bffffffffffffffffffffffffffffffffffffffffffffffffffffffff1916148061080157507f5b5e139f000000000000000000000000000000000000000000000000000000007bffffffffffffffffffffffffffffffffffffffffffffffffffffffff1916827bffffffffffffffffffffffffffffffffffffffffffffffffffffffff1916145b80610811575061081082611f06565b5b9050919050565b60606065805461082790614070565b80601f016020809104026020016040519081016040528092919081815260200182805461085390614070565b80156108a05780601f10610875576101008083540402835291602001916108a0565b820191906000526020600020905b81548152906001019060200180831161088357829003601f168201915b5050505050905090565b60006108b582611f70565b6069600083815260200190815260200160002060009054906101000a900473ffffffffffffffffffffffffffffffffffffffff169050919050565b60006108fb82610e5f565b90508073ffffffffffffffffffffffffffffffffffffffff168373ffffffffffffffffffffffffffffffffffffffff160361096b576040517f08c379a000000000000000000000000000000000000000000000000000000000815260040161096290614113565b60405180910390fd5b8073ffffffffffffffffffffffffffffffffffffffff1661098a611fbb565b73ffffffffffffffffffffffffffffffffffffffff1614806109b957506109b8816109b3611fbb565b611db6565b5b6109f8576040517f08c379a00000000000000000000000000000000000000000000000000000000081526004016109ef906141a5565b60405180910390fd5b610a028383611fc3565b505050565b610a18610a12611fbb565b8261207c565b610a57576040517f08c379a0000000000000000000000000000000000000000000000000000000008152600401610a4e90614237565b60405180910390fd5b610a62838383612111565b505050565b6000610a7282610f10565b9050919050565b7f000000000000000000000000000000000000000000000000000000000000000073ffffffffffffffffffffffffffffffffffffffff163073ffffffffffffffffffffffffffffffffffffffff1603610b07576040517f08c379a0000000000000000000000000000000000000000000000000000000008152600401610afe906142c9565b60405180910390fd5b7f000000000000000000000000000000000000000000000000000000000000000073ffffffffffffffffffffffffffffffffffffffff16610b46612377565b73ffffffffffffffffffffffffffffffffffffffff1614610b9c576040517f08c379a0000000000000000000000000000000000000000000000000000000008152600401610b939061435b565b60405180910390fd5b610ba5816123ce565b610bfe81600067ffffffffffffffff811115610bc457610bc3613847565b5b6040519080825280601f01601f191660200182016040528015610bf65781602001600182028036833780820191505090505b5060006123d9565b50565b600061016160008481526020019081526020016000209050818160080160016101000a81548160ff02191690836003811115610c4057610c3f613cfd565b5b0217905550505050565b610c6583838360405180602001604052806000815250611952565b505050565b7f000000000000000000000000000000000000000000000000000000000000000073ffffffffffffffffffffffffffffffffffffffff163073ffffffffffffffffffffffffffffffffffffffff1603610cf8576040517f08c379a0000000000000000000000000000000000000000000000000000000008152600401610cef906142c9565b60405180910390fd5b7f000000000000000000000000000000000000000000000000000000000000000073ffffffffffffffffffffffffffffffffffffffff16610d37612377565b73ffffffffffffffffffffffffffffffffffffffff1614610d8d576040517f08c379a0000000000000000000000000000000000000000000000000000000008152600401610d849061435b565b60405180910390fd5b610d96826123ce565b610da2828260016123d9565b5050565b60007f000000000000000000000000000000000000000000000000000000000000000073ffffffffffffffffffffffffffffffffffffffff163073ffffffffffffffffffffffffffffffffffffffff1614610e36576040517f08c379a0000000000000000000000000000000000000000000000000000000008152600401610e2d906143ed565b60405180910390fd5b7f360894a13ba1a3210667c828492db98dca3e2076cc3735a920a3ca505d382bbc60001b905090565b6000806067600084815260200190815260200160002060009054906101000a900473ffffffffffffffffffffffffffffffffffffffff169050600073ffffffffffffffffffffffffffffffffffffffff168173ffffffffffffffffffffffffffffffffffffffff1603610f07576040517f08c379a0000000000000000000000000000000000000000000000000000000008152600401610efe90614459565b60405180910390fd5b80915050919050565b60008073ffffffffffffffffffffffffffffffffffffffff168273ffffffffffffffffffffffffffffffffffffffff1603610f80576040517f08c379a0000000000000000000000000000000000000000000000000000000008152600401610f77906144eb565b60405180910390fd5b606860008373ffffffffffffffffffffffffffffffffffffffff1673ffffffffffffffffffffffffffffffffffffffff168152602001908152602001600020549050919050565b610fcf612547565b610fd960006125c5565b565b600061016160008481526020019081526020016000209050818160040160006101000a81548173ffffffffffffffffffffffffffffffffffffffff021916908373ffffffffffffffffffffffffffffffffffffffff16021790555061104961104284610e5f565b8385612111565b505050565b61105961015f61268d565b61106c61106761015f6126a3565b6126b1565b156110ac576040517f08c379a00000000000000000000000000000000000000000000000000000000081526004016110a390614557565b60405180910390fd5b610162826040516110bd91906145b3565b908152602001604051809103902060009054906101000a900460ff1615611119576040517f08c379a000000000000000000000000000000000000000000000000000000000815260040161111090614616565b60405180910390fd5b61112d3361112861015f6126a3565b61271d565b61114161113b61015f6126a3565b8461273b565b60006040518061014001604052808681526020018581526020018481526020013373ffffffffffffffffffffffffffffffffffffffff1681526020013373ffffffffffffffffffffffffffffffffffffffff168152602001600081526020018363ffffffff1681526020016111b761015f6126a3565b8152602001600015158152602001600060038111156111d9576111d8613cfd565b5b81525090506001610162846040516111f191906145b3565b908152602001604051809103902060006101000a81548160ff02191690831515021790555080610161600061122761015f6126a3565b8152602001908152602001600020600082015181600001908161124a91906147e2565b50602082015181600101908161126091906147e2565b50604082015181600201908161127691906147e2565b5060608201518160030160006101000a81548173ffffffffffffffffffffffffffffffffffffffff021916908373ffffffffffffffffffffffffffffffffffffffff16021790555060808201518160040160006101000a81548173ffffffffffffffffffffffffffffffffffffffff021916908373ffffffffffffffffffffffffffffffffffffffff16021790555060a0820151816005015560c0820151816006015560e082015181600701556101008201518160080160006101000a81548160ff0219169083151502179055506101208201518160080160016101000a81548160ff021916908360038111156113705761136f613cfd565b5b02179055509050505050505050565b60008060019054906101000a900460ff161590508080156113b05750600160008054906101000a900460ff1660ff16105b806113dd57506113bf30612761565b1580156113dc5750600160008054906101000a900460ff1660ff16145b5b61141c576040517f08c379a000000000000000000000000000000000000000000000000000000000815260040161141390614926565b60405180910390fd5b60016000806101000a81548160ff021916908360ff1602179055508015611459576001600060016101000a81548160ff0219169083151502179055505b6114cd6040518060400160405280600881526020017f496d6167654e46540000000000000000000000000000000000000000000000008152506040518060400160405280600381526020017f4d544b0000000000000000000000000000000000000000000000000000000000815250612784565b6114d56127e1565b6114dd612832565b6114e561288b565b801561153e5760008060016101000a81548160ff0219169083151502179055507f7f26b83ff96e1f2b6a682f133852f6798a09c465da95921460cefb38474024986001604051611535919061498e565b60405180910390a15b50565b600061016160008481526020019081526020016000209050818160050181905550505050565b600061012d60009054906101000a900473ffffffffffffffffffffffffffffffffffffffff16905090565b6060606680546115a190614070565b80601f01602080910402602001604051908101604052809291908181526020018280546115cd90614070565b801561161a5780601f106115ef5761010080835404028352916020019161161a565b820191906000526020600020905b8154815290600101906020018083116115fd57829003601f168201915b5050505050905090565b61163661162f611fbb565b83836128dc565b5050565b611642613389565b600061016160008481526020019081526020016000206040518061014001604052908160008201805461167490614070565b80601f01602080910402602001604051908101604052809291908181526020018280546116a090614070565b80156116ed5780601f106116c2576101008083540402835291602001916116ed565b820191906000526020600020905b8154815290600101906020018083116116d057829003601f168201915b5050505050815260200160018201805461170690614070565b80601f016020809104026020016040519081016040528092919081815260200182805461173290614070565b801561177f5780601f106117545761010080835404028352916020019161177f565b820191906000526020600020905b81548152906001019060200180831161176257829003601f168201915b5050505050815260200160028201805461179890614070565b80601f01602080910402602001604051908101604052809291908181526020018280546117c490614070565b80156118115780601f106117e657610100808354040283529160200191611811565b820191906000526020600020905b8154815290600101906020018083116117f457829003601f168201915b505050505081526020016003820160009054906101000a900473ffffffffffffffffffffffffffffffffffffffff1673ffffffffffffffffffffffffffffffffffffffff1673ffffffffffffffffffffffffffffffffffffffff1681526020016004820160009054906101000a900473ffffffffffffffffffffffffffffffffffffffff1673ffffffffffffffffffffffffffffffffffffffff1673ffffffffffffffffffffffffffffffffffffffff1681526020016005820154815260200160068201548152602001600782015481526020016008820160009054906101000a900460ff161515151581526020016008820160019054906101000a900460ff16600381111561192457611923613cfd565b5b600381111561193657611935613cfd565b5b81525050905080915050919050565b61015f8060000154905081565b61196361195d611fbb565b8361207c565b6119a2576040517f08c379a000000000000000000000000000000000000000000000000000000000815260040161199990614237565b60405180910390fd5b6119ae84848484612a48565b50505050565b6119bd81612aa4565b6101616000828152602001908152602001600020600080820160006119e2919061341c565b6001820160006119f2919061341c565b600282016000611a02919061341c565b6003820160006101000a81549073ffffffffffffffffffffffffffffffffffffffff02191690556004820160006101000a81549073ffffffffffffffffffffffffffffffffffffffff02191690556005820160009055600682016000905560078201600090556008820160006101000a81549060ff02191690556008820160016101000a81549060ff0219169055505050565b60606000611aa1612ab0565b9050600061016060008581526020019081526020016000208054611ac490614070565b80601f0160208091040260200160405190810160405280929190818152602001828054611af090614070565b8015611b3d5780601f10611b1257610100808354040283529160200191611b3d565b820191906000526020600020905b815481529060010190602001808311611b2057829003601f168201915b505050505090508181604051602001611b579291906149a9565b60405160208183030381529060405292505050919050565b610161602052806000526040600020600091509050806000018054611b9390614070565b80601f0160208091040260200160405190810160405280929190818152602001828054611bbf90614070565b8015611c0c5780601f10611be157610100808354040283529160200191611c0c565b820191906000526020600020905b815481529060010190602001808311611bef57829003601f168201915b505050505090806001018054611c2190614070565b80601f0160208091040260200160405190810160405280929190818152602001828054611c4d90614070565b8015611c9a5780601f10611c6f57610100808354040283529160200191611c9a565b820191906000526020600020905b815481529060010190602001808311611c7d57829003601f168201915b505050505090806002018054611caf90614070565b80601f0160208091040260200160405190810160405280929190818152602001828054611cdb90614070565b8015611d285780601f10611cfd57610100808354040283529160200191611d28565b820191906000526020600020905b815481529060010190602001808311611d0b57829003601f168201915b5050505050908060030160009054906101000a900473ffffffffffffffffffffffffffffffffffffffff16908060040160009054906101000a900473ffffffffffffffffffffffffffffffffffffffff16908060050154908060060154908060070154908060080160009054906101000a900460ff16908060080160019054906101000a900460ff1690508a565b6000606a60008473ffffffffffffffffffffffffffffffffffffffff1673ffffffffffffffffffffffffffffffffffffffff16815260200190815260200160002060008373ffffffffffffffffffffffffffffffffffffffff1673ffffffffffffffffffffffffffffffffffffffff16815260200190815260200160002060009054906101000a900460ff16905092915050565b600061016160008481526020019081526020016000209050818160080160006101000a81548160ff021916908315150217905550505050565b611e8b612547565b600073ffffffffffffffffffffffffffffffffffffffff168173ffffffffffffffffffffffffffffffffffffffff1603611efa576040517f08c379a0000000000000000000000000000000000000000000000000000000008152600401611ef190614a3f565b60405180910390fd5b611f03816125c5565b50565b60007f01ffc9a7000000000000000000000000000000000000000000000000000000007bffffffffffffffffffffffffffffffffffffffffffffffffffffffff1916827bffffffffffffffffffffffffffffffffffffffffffffffffffffffff1916149050919050565b611f79816126b1565b611fb8576040517f08c379a0000000000000000000000000000000000000000000000000000000008152600401611faf90614459565b60405180910390fd5b50565b600033905090565b816069600083815260200190815260200160002060006101000a81548173ffffffffffffffffffffffffffffffffffffffff021916908373ffffffffffffffffffffffffffffffffffffffff160217905550808273ffffffffffffffffffffffffffffffffffffffff1661203683610e5f565b73ffffffffffffffffffffffffffffffffffffffff167f8c5be1e5ebec7d5bd14f71427d1e84f3dd0314c0f7b2291e5b200ac8c7c3b92560405160405180910390a45050565b60008061208883610e5f565b90508073ffffffffffffffffffffffffffffffffffffffff168473ffffffffffffffffffffffffffffffffffffffff1614806120ca57506120c98185611db6565b5b8061210857508373ffffffffffffffffffffffffffffffffffffffff166120f0846108aa565b73ffffffffffffffffffffffffffffffffffffffff16145b91505092915050565b8273ffffffffffffffffffffffffffffffffffffffff1661213182610e5f565b73ffffffffffffffffffffffffffffffffffffffff1614612187576040517f08c379a000000000000000000000000000000000000000000000000000000000815260040161217e90614ad1565b60405180910390fd5b600073ffffffffffffffffffffffffffffffffffffffff168273ffffffffffffffffffffffffffffffffffffffff16036121f6576040517f08c379a00000000000000000000000000000000000000000000000000000000081526004016121ed90614b63565b60405180910390fd5b612201838383612aed565b61220c600082611fc3565b6001606860008573ffffffffffffffffffffffffffffffffffffffff1673ffffffffffffffffffffffffffffffffffffffff168152602001908152602001600020600082825461225c9190614bb2565b925050819055506001606860008473ffffffffffffffffffffffffffffffffffffffff1673ffffffffffffffffffffffffffffffffffffffff16815260200190815260200160002060008282546122b39190614be6565b92505081905550816067600083815260200190815260200160002060006101000a81548173ffffffffffffffffffffffffffffffffffffffff021916908373ffffffffffffffffffffffffffffffffffffffff160217905550808273ffffffffffffffffffffffffffffffffffffffff168473ffffffffffffffffffffffffffffffffffffffff167fddf252ad1be2c89b69c2b068fc378daa952ba7f163c4a11628f55a4df523b3ef60405160405180910390a4612372838383612af2565b505050565b60006123a57f360894a13ba1a3210667c828492db98dca3e2076cc3735a920a3ca505d382bbc60001b612af7565b60000160009054906101000a900473ffffffffffffffffffffffffffffffffffffffff16905090565b6123d6612547565b50565b6124057f4910fdfa16fed3260ed0e7147f7cc6da11a60208b5b9406d12a635614ffd914360001b612b01565b60000160009054906101000a900460ff16156124295761242483612b0b565b612542565b8273ffffffffffffffffffffffffffffffffffffffff166352d1902d6040518163ffffffff1660e01b8152600401602060405180830381865afa92505050801561249157506040513d601f19601f8201168201806040525081019061248e9190614c68565b60015b6124d0576040517f08c379a00000000000000000000000000000000000000000000000000000000081526004016124c790614d07565b60405180910390fd5b7f360894a13ba1a3210667c828492db98dca3e2076cc3735a920a3ca505d382bbc60001b8114612535576040517f08c379a000000000000000000000000000000000000000000000000000000000815260040161252c90614d99565b60405180910390fd5b50612541838383612bc4565b5b505050565b61254f611fbb565b73ffffffffffffffffffffffffffffffffffffffff1661256d611567565b73ffffffffffffffffffffffffffffffffffffffff16146125c3576040517f08c379a00000000000000000000000000000000000000000000000000000000081526004016125ba90614e05565b60405180910390fd5b565b600061012d60009054906101000a900473ffffffffffffffffffffffffffffffffffffffff1690508161012d60006101000a81548173ffffffffffffffffffffffffffffffffffffffff021916908373ffffffffffffffffffffffffffffffffffffffff1602179055508173ffffffffffffffffffffffffffffffffffffffff168173ffffffffffffffffffffffffffffffffffffffff167f8be0079c531659141344cd1fd0a4f28419497f9722a3daafe3b4186f6b6457e060405160405180910390a35050565b6001816000016000828254019250508190555050565b600081600001549050919050565b60008073ffffffffffffffffffffffffffffffffffffffff166067600084815260200190815260200160002060009054906101000a900473ffffffffffffffffffffffffffffffffffffffff1673ffffffffffffffffffffffffffffffffffffffff1614159050919050565b612737828260405180602001604052806000815250612bf0565b5050565b806101606000848152602001908152602001600020908161275c91906147e2565b505050565b6000808273ffffffffffffffffffffffffffffffffffffffff163b119050919050565b600060019054906101000a900460ff166127d3576040517f08c379a00000000000000000000000000000000000000000000000000000000081526004016127ca90614e97565b60405180910390fd5b6127dd8282612c4b565b5050565b600060019054906101000a900460ff16612830576040517f08c379a000000000000000000000000000000000000000000000000000000000815260040161282790614e97565b60405180910390fd5b565b600060019054906101000a900460ff16612881576040517f08c379a000000000000000000000000000000000000000000000000000000000815260040161287890614e97565b60405180910390fd5b612889612cbe565b565b600060019054906101000a900460ff166128da576040517f08c379a00000000000000000000000000000000000000000000000000000000081526004016128d190614e97565b60405180910390fd5b565b8173ffffffffffffffffffffffffffffffffffffffff168373ffffffffffffffffffffffffffffffffffffffff160361294a576040517f08c379a000000000000000000000000000000000000000000000000000000000815260040161294190614f03565b60405180910390fd5b80606a60008573ffffffffffffffffffffffffffffffffffffffff1673ffffffffffffffffffffffffffffffffffffffff16815260200190815260200160002060008473ffffffffffffffffffffffffffffffffffffffff1673ffffffffffffffffffffffffffffffffffffffff16815260200190815260200160002060006101000a81548160ff0219169083151502179055508173ffffffffffffffffffffffffffffffffffffffff168373ffffffffffffffffffffffffffffffffffffffff167f17307eab39ab6107e8899845ad3d59bd9653f200f220920489ca2b5937696c3183604051612a3b919061352d565b60405180910390a3505050565b612a53848484612111565b612a5f84848484612d1f565b612a9e576040517f08c379a0000000000000000000000000000000000000000000000000000000008152600401612a9590614f95565b60405180910390fd5b50505050565b612aad81612ea6565b50565b60606040518060400160405280600781526020017f697066733a2f2f00000000000000000000000000000000000000000000000000815250905090565b505050565b505050565b6000819050919050565b6000819050919050565b612b1481612761565b612b53576040517f08c379a0000000000000000000000000000000000000000000000000000000008152600401612b4a90615027565b60405180910390fd5b80612b807f360894a13ba1a3210667c828492db98dca3e2076cc3735a920a3ca505d382bbc60001b612af7565b60000160006101000a81548173ffffffffffffffffffffffffffffffffffffffff021916908373ffffffffffffffffffffffffffffffffffffffff16021790555050565b612bcd83612ef9565b600082511180612bda5750805b15612beb57612be98383612f48565b505b505050565b612bfa838361302c565b612c076000848484612d1f565b612c46576040517f08c379a0000000000000000000000000000000000000000000000000000000008152600401612c3d90614f95565b60405180910390fd5b505050565b600060019054906101000a900460ff16612c9a576040517f08c379a0000000000000000000000000000000000000000000000000000000008152600401612c9190614e97565b60405180910390fd5b8160659081612ca991906147e2565b508060669081612cb991906147e2565b505050565b600060019054906101000a900460ff16612d0d576040517f08c379a0000000000000000000000000000000000000000000000000000000008152600401612d0490614e97565b60405180910390fd5b612d1d612d18611fbb565b6125c5565b565b6000612d408473ffffffffffffffffffffffffffffffffffffffff16612761565b15612e99578373ffffffffffffffffffffffffffffffffffffffff1663150b7a02612d69611fbb565b8786866040518563ffffffff1660e01b8152600401612d8b949392919061509c565b6020604051808303816000875af1925050508015612dc757506040513d601f19601f82011682018060405250810190612dc491906150fd565b60015b612e49573d8060008114612df7576040519150601f19603f3d011682016040523d82523d6000602084013e612dfc565b606091505b506000815103612e41576040517f08c379a0000000000000000000000000000000000000000000000000000000008152600401612e3890614f95565b60405180910390fd5b805181602001fd5b63150b7a0260e01b7bffffffffffffffffffffffffffffffffffffffffffffffffffffffff1916817bffffffffffffffffffffffffffffffffffffffffffffffffffffffff191614915050612e9e565b600190505b949350505050565b612eaf81613205565b6000609760008381526020019081526020016000208054612ecf90614070565b905014612ef657609760008281526020019081526020016000206000612ef5919061341c565b5b50565b612f0281612b0b565b8073ffffffffffffffffffffffffffffffffffffffff167fbc7cd75a20ee27fd9adebab32041f755214dbc6bffa90cc0225b39da2e5c2d3b60405160405180910390a250565b6060612f5383612761565b612f92576040517f08c379a0000000000000000000000000000000000000000000000000000000008152600401612f899061519c565b60405180910390fd5b6000808473ffffffffffffffffffffffffffffffffffffffff1684604051612fba91906151f8565b600060405180830381855af49150503d8060008114612ff5576040519150601f19603f3d011682016040523d82523d6000602084013e612ffa565b606091505b509150915061302282826040518060600160405280602781526020016152e860279139613322565b9250505092915050565b600073ffffffffffffffffffffffffffffffffffffffff168273ffffffffffffffffffffffffffffffffffffffff160361309b576040517f08c379a00000000000000000000000000000000000000000000000000000000081526004016130929061525b565b60405180910390fd5b6130a4816126b1565b156130e4576040517f08c379a00000000000000000000000000000000000000000000000000000000081526004016130db906152c7565b60405180910390fd5b6130f060008383612aed565b6001606860008473ffffffffffffffffffffffffffffffffffffffff1673ffffffffffffffffffffffffffffffffffffffff16815260200190815260200160002060008282546131409190614be6565b92505081905550816067600083815260200190815260200160002060006101000a81548173ffffffffffffffffffffffffffffffffffffffff021916908373ffffffffffffffffffffffffffffffffffffffff160217905550808273ffffffffffffffffffffffffffffffffffffffff16600073ffffffffffffffffffffffffffffffffffffffff167fddf252ad1be2c89b69c2b068fc378daa952ba7f163c4a11628f55a4df523b3ef60405160405180910390a461320160008383612af2565b5050565b600061321082610e5f565b905061321e81600084612aed565b613229600083611fc3565b6001606860008373ffffffffffffffffffffffffffffffffffffffff1673ffffffffffffffffffffffffffffffffffffffff16815260200190815260200160002060008282546132799190614bb2565b925050819055506067600083815260200190815260200160002060006101000a81549073ffffffffffffffffffffffffffffffffffffffff021916905581600073ffffffffffffffffffffffffffffffffffffffff168273ffffffffffffffffffffffffffffffffffffffff167fddf252ad1be2c89b69c2b068fc378daa952ba7f163c4a11628f55a4df523b3ef60405160405180910390a461331e81600084612af2565b5050565b6060831561333257829050613382565b6000835111156133455782518084602001fd5b816040517f08c379a000000000000000000000000000000000000000000000000000000000815260040161337991906135e1565b60405180910390fd5b9392505050565b604051806101400160405280606081526020016060815260200160608152602001600073ffffffffffffffffffffffffffffffffffffffff168152602001600073ffffffffffffffffffffffffffffffffffffffff1681526020016000815260200160008152602001600081526020016000151581526020016000600381111561341657613415613cfd565b5b81525090565b50805461342890614070565b6000825580601f1061343a5750613459565b601f016020900490600052602060002090810190613458919061345c565b5b50565b5b8082111561347557600081600090555060010161345d565b5090565b6000604051905090565b600080fd5b600080fd5b60007fffffffff0000000000000000000000000000000000000000000000000000000082169050919050565b6134c28161348d565b81146134cd57600080fd5b50565b6000813590506134df816134b9565b92915050565b6000602082840312156134fb576134fa613483565b5b6000613509848285016134d0565b91505092915050565b60008115159050919050565b61352781613512565b82525050565b6000602082019050613542600083018461351e565b92915050565b600081519050919050565b600082825260208201905092915050565b60005b83811015613582578082015181840152602081019050613567565b83811115613591576000848401525b50505050565b6000601f19601f8301169050919050565b60006135b382613548565b6135bd8185613553565b93506135cd818560208601613564565b6135d681613597565b840191505092915050565b600060208201905081810360008301526135fb81846135a8565b905092915050565b6000819050919050565b61361681613603565b811461362157600080fd5b50565b6000813590506136338161360d565b92915050565b60006020828403121561364f5761364e613483565b5b600061365d84828501613624565b91505092915050565b600073ffffffffffffffffffffffffffffffffffffffff82169050919050565b600061369182613666565b9050919050565b6136a181613686565b82525050565b60006020820190506136bc6000830184613698565b92915050565b6136cb81613686565b81146136d657600080fd5b50565b6000813590506136e8816136c2565b92915050565b6000806040838503121561370557613704613483565b5b6000613713858286016136d9565b925050602061372485828601613624565b9150509250929050565b60008060006060848603121561374757613746613483565b5b6000613755868287016136d9565b9350506020613766868287016136d9565b925050604061377786828701613624565b9150509250925092565b60006020828403121561379757613796613483565b5b60006137a5848285016136d9565b91505092915050565b6137b781613603565b82525050565b60006020820190506137d260008301846137ae565b92915050565b600481106137e557600080fd5b50565b6000813590506137f7816137d8565b92915050565b6000806040838503121561381457613813613483565b5b600061382285828601613624565b9250506020613833858286016137e8565b9150509250929050565b600080fd5b600080fd5b7f4e487b7100000000000000000000000000000000000000000000000000000000600052604160045260246000fd5b61387f82613597565b810181811067ffffffffffffffff8211171561389e5761389d613847565b5b80604052505050565b60006138b1613479565b90506138bd8282613876565b919050565b600067ffffffffffffffff8211156138dd576138dc613847565b5b6138e682613597565b9050602081019050919050565b82818337600083830152505050565b6000613915613910846138c2565b6138a7565b90508281526020810184848401111561393157613930613842565b5b61393c8482856138f3565b509392505050565b600082601f8301126139595761395861383d565b5b8135613969848260208601613902565b91505092915050565b6000806040838503121561398957613988613483565b5b6000613997858286016136d9565b925050602083013567ffffffffffffffff8111156139b8576139b7613488565b5b6139c485828601613944565b9150509250929050565b6000819050919050565b6139e1816139ce565b82525050565b60006020820190506139fc60008301846139d8565b92915050565b60008060408385031215613a1957613a18613483565b5b6000613a2785828601613624565b9250506020613a38858286016136d9565b9150509250929050565b600067ffffffffffffffff821115613a5d57613a5c613847565b5b613a6682613597565b9050602081019050919050565b6000613a86613a8184613a42565b6138a7565b905082815260208101848484011115613aa257613aa1613842565b5b613aad8482856138f3565b509392505050565b600082601f830112613aca57613ac961383d565b5b8135613ada848260208601613a73565b91505092915050565b600063ffffffff82169050919050565b613afc81613ae3565b8114613b0757600080fd5b50565b600081359050613b1981613af3565b92915050565b60008060008060808587031215613b3957613b38613483565b5b600085013567ffffffffffffffff811115613b5757613b56613488565b5b613b6387828801613ab5565b945050602085013567ffffffffffffffff811115613b8457613b83613488565b5b613b9087828801613ab5565b935050604085013567ffffffffffffffff811115613bb157613bb0613488565b5b613bbd87828801613ab5565b9250506060613bce87828801613b0a565b91505092959194509250565b60008060408385031215613bf157613bf0613483565b5b6000613bff85828601613624565b9250506020613c1085828601613624565b9150509250929050565b613c2381613512565b8114613c2e57600080fd5b50565b600081359050613c4081613c1a565b92915050565b60008060408385031215613c5d57613c5c613483565b5b6000613c6b858286016136d9565b9250506020613c7c85828601613c31565b9150509250929050565b600082825260208201905092915050565b6000613ca282613548565b613cac8185613c86565b9350613cbc818560208601613564565b613cc581613597565b840191505092915050565b613cd981613686565b82525050565b613ce881613603565b82525050565b613cf781613512565b82525050565b7f4e487b7100000000000000000000000000000000000000000000000000000000600052602160045260246000fd5b60048110613d3d57613d3c613cfd565b5b50565b6000819050613d4e82613d2c565b919050565b6000613d5e82613d40565b9050919050565b613d6e81613d53565b82525050565b6000610140830160008301518482036000860152613d928282613c97565b91505060208301518482036020860152613dac8282613c97565b91505060408301518482036040860152613dc68282613c97565b9150506060830151613ddb6060860182613cd0565b506080830151613dee6080860182613cd0565b5060a0830151613e0160a0860182613cdf565b5060c0830151613e1460c0860182613cdf565b5060e0830151613e2760e0860182613cdf565b50610100830151613e3c610100860182613cee565b50610120830151613e51610120860182613d65565b508091505092915050565b60006020820190508181036000830152613e768184613d74565b905092915050565b60008060008060808587031215613e9857613e97613483565b5b6000613ea6878288016136d9565b9450506020613eb7878288016136d9565b9350506040613ec887828801613624565b925050606085013567ffffffffffffffff811115613ee957613ee8613488565b5b613ef587828801613944565b91505092959194509250565b613f0a81613d53565b82525050565b6000610140820190508181036000830152613f2b818d6135a8565b90508181036020830152613f3f818c6135a8565b90508181036040830152613f53818b6135a8565b9050613f62606083018a613698565b613f6f6080830189613698565b613f7c60a08301886137ae565b613f8960c08301876137ae565b613f9660e08301866137ae565b613fa461010083018561351e565b613fb2610120830184613f01565b9b9a5050505050505050505050565b60008060408385031215613fd857613fd7613483565b5b6000613fe6858286016136d9565b9250506020613ff7858286016136d9565b9150509250929050565b6000806040838503121561401857614017613483565b5b600061402685828601613624565b925050602061403785828601613c31565b9150509250929050565b7f4e487b7100000000000000000000000000000000000000000000000000000000600052602260045260246000fd5b6000600282049050600182168061408857607f821691505b60208210810361409b5761409a614041565b5b50919050565b7f4552433732313a20617070726f76616c20746f2063757272656e74206f776e6560008201527f7200000000000000000000000000000000000000000000000000000000000000602082015250565b60006140fd602183613553565b9150614108826140a1565b604082019050919050565b6000602082019050818103600083015261412c816140f0565b9050919050565b7f4552433732313a20617070726f76652063616c6c6572206973206e6f7420746f60008201527f6b656e206f776e6572206e6f7220617070726f76656420666f7220616c6c0000602082015250565b600061418f603e83613553565b915061419a82614133565b604082019050919050565b600060208201905081810360008301526141be81614182565b9050919050565b7f4552433732313a2063616c6c6572206973206e6f7420746f6b656e206f776e6560008201527f72206e6f7220617070726f766564000000000000000000000000000000000000602082015250565b6000614221602e83613553565b915061422c826141c5565b604082019050919050565b6000602082019050818103600083015261425081614214565b9050919050565b7f46756e6374696f6e206d7573742062652063616c6c6564207468726f7567682060008201527f64656c656761746563616c6c0000000000000000000000000000000000000000602082015250565b60006142b3602c83613553565b91506142be82614257565b604082019050919050565b600060208201905081810360008301526142e2816142a6565b9050919050565b7f46756e6374696f6e206d7573742062652063616c6c6564207468726f7567682060008201527f6163746976652070726f78790000000000000000000000000000000000000000602082015250565b6000614345602c83613553565b9150614350826142e9565b604082019050919050565b6000602082019050818103600083015261437481614338565b9050919050565b7f555550535570677261646561626c653a206d757374206e6f742062652063616c60008201527f6c6564207468726f7567682064656c656761746563616c6c0000000000000000602082015250565b60006143d7603883613553565b91506143e28261437b565b604082019050919050565b60006020820190508181036000830152614406816143ca565b9050919050565b7f4552433732313a20696e76616c696420746f6b656e2049440000000000000000600082015250565b6000614443601883613553565b915061444e8261440d565b602082019050919050565b6000602082019050818103600083015261447281614436565b9050919050565b7f4552433732313a2061646472657373207a65726f206973206e6f74206120766160008201527f6c6964206f776e65720000000000000000000000000000000000000000000000602082015250565b60006144d5602983613553565b91506144e082614479565b604082019050919050565b60006020820190508181036000830152614504816144c8565b9050919050565b7f496d61676549442072657065617465642e000000000000000000000000000000600082015250565b6000614541601183613553565b915061454c8261450b565b602082019050919050565b6000602082019050818103600083015261457081614534565b9050919050565b600081905092915050565b600061458d82613548565b6145978185614577565b93506145a7818560208601613564565b80840191505092915050565b60006145bf8284614582565b915081905092915050565b7f546f6b656e205552492072657065617465642e00000000000000000000000000600082015250565b6000614600601383613553565b915061460b826145ca565b602082019050919050565b6000602082019050818103600083015261462f816145f3565b9050919050565b60008190508160005260206000209050919050565b60006020601f8301049050919050565b600082821b905092915050565b6000600883026146987fffffffffffffffffffffffffffffffffffffffffffffffffffffffffffffffff8261465b565b6146a2868361465b565b95508019841693508086168417925050509392505050565b6000819050919050565b60006146df6146da6146d584613603565b6146ba565b613603565b9050919050565b6000819050919050565b6146f9836146c4565b61470d614705826146e6565b848454614668565b825550505050565b600090565b614722614715565b61472d8184846146f0565b505050565b5b818110156147515761474660008261471a565b600181019050614733565b5050565b601f8211156147965761476781614636565b6147708461464b565b8101602085101561477f578190505b61479361478b8561464b565b830182614732565b50505b505050565b600082821c905092915050565b60006147b96000198460080261479b565b1980831691505092915050565b60006147d283836147a8565b9150826002028217905092915050565b6147eb82613548565b67ffffffffffffffff81111561480457614803613847565b5b61480e8254614070565b614819828285614755565b600060209050601f83116001811461484c576000841561483a578287015190505b61484485826147c6565b8655506148ac565b601f19841661485a86614636565b60005b828110156148825784890151825560018201915060208501945060208101905061485d565b8683101561489f578489015161489b601f8916826147a8565b8355505b6001600288020188555050505b505050505050565b7f496e697469616c697a61626c653a20636f6e747261637420697320616c72656160008201527f647920696e697469616c697a6564000000000000000000000000000000000000602082015250565b6000614910602e83613553565b915061491b826148b4565b604082019050919050565b6000602082019050818103600083015261493f81614903565b9050919050565b6000819050919050565b600060ff82169050919050565b600061497861497361496e84614946565b6146ba565b614950565b9050919050565b6149888161495d565b82525050565b60006020820190506149a3600083018461497f565b92915050565b60006149b58285614582565b91506149c18284614582565b91508190509392505050565b7f4f776e61626c653a206e6577206f776e657220697320746865207a65726f206160008201527f6464726573730000000000000000000000000000000000000000000000000000602082015250565b6000614a29602683613553565b9150614a34826149cd565b604082019050919050565b60006020820190508181036000830152614a5881614a1c565b9050919050565b7f4552433732313a207472616e736665722066726f6d20696e636f72726563742060008201527f6f776e6572000000000000000000000000000000000000000000000000000000602082015250565b6000614abb602583613553565b9150614ac682614a5f565b604082019050919050565b60006020820190508181036000830152614aea81614aae565b9050919050565b7f4552433732313a207472616e7366657220746f20746865207a65726f2061646460008201527f7265737300000000000000000000000000000000000000000000000000000000602082015250565b6000614b4d602483613553565b9150614b5882614af1565b604082019050919050565b60006020820190508181036000830152614b7c81614b40565b9050919050565b7f4e487b7100000000000000000000000000000000000000000000000000000000600052601160045260246000fd5b6000614bbd82613603565b9150614bc883613603565b925082821015614bdb57614bda614b83565b5b828203905092915050565b6000614bf182613603565b9150614bfc83613603565b9250827fffffffffffffffffffffffffffffffffffffffffffffffffffffffffffffffff03821115614c3157614c30614b83565b5b828201905092915050565b614c45816139ce565b8114614c5057600080fd5b50565b600081519050614c6281614c3c565b92915050565b600060208284031215614c7e57614c7d613483565b5b6000614c8c84828501614c53565b91505092915050565b7f45524331393637557067726164653a206e657720696d706c656d656e7461746960008201527f6f6e206973206e6f742055555053000000000000000000000000000000000000602082015250565b6000614cf1602e83613553565b9150614cfc82614c95565b604082019050919050565b60006020820190508181036000830152614d2081614ce4565b9050919050565b7f45524331393637557067726164653a20756e737570706f727465642070726f7860008201527f6961626c65555549440000000000000000000000000000000000000000000000602082015250565b6000614d83602983613553565b9150614d8e82614d27565b604082019050919050565b60006020820190508181036000830152614db281614d76565b9050919050565b7f4f776e61626c653a2063616c6c6572206973206e6f7420746865206f776e6572600082015250565b6000614def602083613553565b9150614dfa82614db9565b602082019050919050565b60006020820190508181036000830152614e1e81614de2565b9050919050565b7f496e697469616c697a61626c653a20636f6e7472616374206973206e6f74206960008201527f6e697469616c697a696e67000000000000000000000000000000000000000000602082015250565b6000614e81602b83613553565b9150614e8c82614e25565b604082019050919050565b60006020820190508181036000830152614eb081614e74565b9050919050565b7f4552433732313a20617070726f766520746f2063616c6c657200000000000000600082015250565b6000614eed601983613553565b9150614ef882614eb7565b602082019050919050565b60006020820190508181036000830152614f1c81614ee0565b9050919050565b7f4552433732313a207472616e7366657220746f206e6f6e20455243373231526560008201527f63656976657220696d706c656d656e7465720000000000000000000000000000602082015250565b6000614f7f603283613553565b9150614f8a82614f23565b604082019050919050565b60006020820190508181036000830152614fae81614f72565b9050919050565b7f455243313936373a206e657720696d706c656d656e746174696f6e206973206e60008201527f6f74206120636f6e747261637400000000000000000000000000000000000000602082015250565b6000615011602d83613553565b915061501c82614fb5565b604082019050919050565b6000602082019050818103600083015261504081615004565b9050919050565b600081519050919050565b600082825260208201905092915050565b600061506e82615047565b6150788185615052565b9350615088818560208601613564565b61509181613597565b840191505092915050565b60006080820190506150b16000830187613698565b6150be6020830186613698565b6150cb60408301856137ae565b81810360608301526150dd8184615063565b905095945050505050565b6000815190506150f7816134b9565b92915050565b60006020828403121561511357615112613483565b5b6000615121848285016150e8565b91505092915050565b7f416464726573733a2064656c65676174652063616c6c20746f206e6f6e2d636f60008201527f6e74726163740000000000000000000000000000000000000000000000000000602082015250565b6000615186602683613553565b91506151918261512a565b604082019050919050565b600060208201905081810360008301526151b581615179565b9050919050565b600081905092915050565b60006151d282615047565b6151dc81856151bc565b93506151ec818560208601613564565b80840191505092915050565b600061520482846151c7565b915081905092915050565b7f4552433732313a206d696e7420746f20746865207a65726f2061646472657373600082015250565b6000615245602083613553565b91506152508261520f565b602082019050919050565b6000602082019050818103600083015261527481615238565b9050919050565b7f4552433732313a20746f6b656e20616c7265616479206d696e74656400000000600082015250565b60006152b1601c83613553565b91506152bc8261527b565b602082019050919050565b600060208201905081810360008301526152e0816152a4565b905091905056fe416464726573733a206c6f772d6c6576656c2064656c65676174652063616c6c206661696c6564a264697066735822122071b5d545b63b7773b13b4355ec67ef76122abcf14558da6604dc9e824a949b3464736f6c634300080f0033",
  "immutableReferences": {
    "702": [
      {
        "length": 32,
        "start": 2683
      },
      {
        "length": 32,
        "start": 2825
      },
      {
        "length": 32,
        "start": 3180
      },
      {
        "length": 32,
        "start": 3322
      },
      {
        "length": 32,
        "start": 3498
      }
    ]
  },
  "source": "// SPDX-License-Identifier: MIT\npragma solidity ^0.8.9;\n\nimport \"@openzeppelin/contracts-upgradeable/token/ERC721/ERC721Upgradeable.sol\";\nimport \"@openzeppelin/contracts-upgradeable/token/ERC721/extensions/ERC721URIStorageUpgradeable.sol\";\nimport \"@openzeppelin/contracts-upgradeable/proxy/utils/Initializable.sol\";\nimport \"@openzeppelin/contracts-upgradeable/proxy/utils/UUPSUpgradeable.sol\";\nimport \"@openzeppelin/contracts-upgradeable/utils/CountersUpgradeable.sol\";\nimport \"@openzeppelin/contracts-upgradeable/access/OwnableUpgradeable.sol\";\nimport \"./Lib.sol\";\n\ncontract ImageNFT is\n  Initializable,\n  ERC721Upgradeable,\n  ERC721URIStorageUpgradeable,\n  UUPSUpgradeable,\n  OwnableUpgradeable\n{\n  using CountersUpgradeable for CountersUpgradeable.Counter;\n  CountersUpgradeable.Counter public _tokenIds;\n\n  /// @custom:oz-upgrades-unsafe-allow constructor\n\n  function initialize() public initializer {\n    __ERC721_init(\"ImageNFT\", \"MTK\");\n    __ERC721URIStorage_init();\n    __Ownable_init();\n    __UUPSUpgradeable_init();\n  }\n\n  function _authorizeUpgrade(address newImplementation)\n    internal\n    override\n    onlyOwner\n  {}\n\n  function _burn(uint256 tokenId)\n    internal\n    override(ERC721Upgradeable, ERC721URIStorageUpgradeable)\n  {\n    super._burn(tokenId);\n  }\n\n  function _baseURI()\n    internal\n    pure\n    override(ERC721Upgradeable)\n    returns (string memory)\n  {\n    return \"ipfs://\";\n  }\n\n  function _setTokenURI(uint256 tokenId, string memory _tokenURI)\n    internal\n    virtual\n    override(ERC721URIStorageUpgradeable)\n  {\n    _tokenURIs[tokenId] = _tokenURI;\n  }\n\n  function tokenURI(uint256 tokenId)\n    public\n    view\n    override(ERC721Upgradeable, ERC721URIStorageUpgradeable)\n    returns (string memory)\n  {\n    string memory base = _baseURI();\n    string memory _tokenURI = _tokenURIs[tokenId];\n    return string(abi.encodePacked(base, _tokenURI));\n  }\n\n  //  \n  mapping(uint256 => string) private _tokenURIs;\n  mapping(uint256 => Lib.Image) public imageStorage;\n  mapping(string => bool) internal tokenCIDExists;\n\n  //\n  function mintImageNFT(\n    string memory tokenName,\n    string memory ipfsHashOfPhoto,\n    string memory tokenCID,\n    uint32 newSale\n  ) external {\n    _tokenIds.increment();\n    require(!_exists(_tokenIds.current()), \"ImageID repeated.\");\n    require(!tokenCIDExists[tokenCID], \"Token URI repeated.\");\n    _safeMint(msg.sender, _tokenIds.current());\n    _setTokenURI(_tokenIds.current(), ipfsHashOfPhoto);\n    Lib.Image memory newImage = Lib.Image(\n      tokenName,\n      ipfsHashOfPhoto,\n      tokenCID,\n      msg.sender,\n      msg.sender,\n      0,\n      newSale,\n      _tokenIds.current(),\n      false,\n      Lib.Status.OffBid\n    );\n    tokenCIDExists[tokenCID] = true;\n    imageStorage[_tokenIds.current()] = newImage;\n  }\n\n  // \n  function updateStatus(uint256 _tokenID, Lib.Status status) external {\n    Lib.Image storage image = imageStorage[_tokenID];\n    image.status = status;\n  }\n\n  // \n  function updateOwner(uint256 _tokenID, address newOwner) external {\n    Lib.Image storage image = imageStorage[_tokenID];\n\n    image.currentOwner = newOwner;\n    _transfer(ownerOf(_tokenID), newOwner, _tokenID);\n  }\n\n  //  \n  function updatePrice(uint256 _tokenID, uint256 newPrice) external {\n    Lib.Image storage image = imageStorage[_tokenID];\n    image.highestBidPrice = newPrice;\n  }\n\n  // \n  function updateKRW(uint256 _tokenID, bool _isKRW) external {\n    Lib.Image storage image = imageStorage[_tokenID];\n    image.isKRW = _isKRW;\n  }\n\n  // // \n  function getOwnedNumber(address owner) external view returns (uint256) {\n    return balanceOf(owner);\n  }\n\n  //image\n  function ImageDate(uint256 tokenId) external view returns (Lib.Image memory) {\n    Lib.Image memory imageDate = imageStorage[tokenId];\n    return imageDate;\n  }\n\n  // \n  function Burn(uint256 tokenId) external {\n    _burn(tokenId);\n\n    delete imageStorage[tokenId];\n  }\n}\n",
  "sourcePath": "/Users/hangyeonghyeon/Desktop/WNFT/contracts/ImageNFT.sol",
  "compiler": {
    "name": "solc",
    "version": "0.8.15+commit.e14f2714.Emscripten.clang"
  },
  "schemaVersion": "3.4.6",
  "updatedAt": "2022-08-02T06:21:53.471Z",
  "networkType": "ethereum",
  "devdoc": {
    "kind": "dev",
    "methods": {
      "approve(address,uint256)": {
        "details": "See {IERC721-approve}."
      },
      "balanceOf(address)": {
        "details": "See {IERC721-balanceOf}."
      },
      "getApproved(uint256)": {
        "details": "See {IERC721-getApproved}."
      },
      "initialize()": {
        "custom:oz-upgrades-unsafe-allow": "constructor"
      },
      "isApprovedForAll(address,address)": {
        "details": "See {IERC721-isApprovedForAll}."
      },
      "name()": {
        "details": "See {IERC721Metadata-name}."
      },
      "owner()": {
        "details": "Returns the address of the current owner."
      },
      "ownerOf(uint256)": {
        "details": "See {IERC721-ownerOf}."
      },
      "proxiableUUID()": {
        "details": "Implementation of the ERC1822 {proxiableUUID} function. This returns the storage slot used by the implementation. It is used to validate that the this implementation remains valid after an upgrade. IMPORTANT: A proxy pointing at a proxiable contract should not be considered proxiable itself, because this risks bricking a proxy that upgrades to it, by delegating to itself until out of gas. Thus it is critical that this function revert if invoked through a proxy. This is guaranteed by the `notDelegated` modifier."
      },
      "renounceOwnership()": {
        "details": "Leaves the contract without owner. It will not be possible to call `onlyOwner` functions anymore. Can only be called by the current owner. NOTE: Renouncing ownership will leave the contract without an owner, thereby removing any functionality that is only available to the owner."
      },
      "safeTransferFrom(address,address,uint256)": {
        "details": "See {IERC721-safeTransferFrom}."
      },
      "safeTransferFrom(address,address,uint256,bytes)": {
        "details": "See {IERC721-safeTransferFrom}."
      },
      "setApprovalForAll(address,bool)": {
        "details": "See {IERC721-setApprovalForAll}."
      },
      "supportsInterface(bytes4)": {
        "details": "See {IERC165-supportsInterface}."
      },
      "symbol()": {
        "details": "See {IERC721Metadata-symbol}."
      },
      "transferFrom(address,address,uint256)": {
        "details": "See {IERC721-transferFrom}."
      },
      "transferOwnership(address)": {
        "details": "Transfers ownership of the contract to a new account (`newOwner`). Can only be called by the current owner."
      },
      "upgradeTo(address)": {
        "details": "Upgrade the implementation of the proxy to `newImplementation`. Calls {_authorizeUpgrade}. Emits an {Upgraded} event."
      },
      "upgradeToAndCall(address,bytes)": {
        "details": "Upgrade the implementation of the proxy to `newImplementation`, and subsequently execute the function call encoded in `data`. Calls {_authorizeUpgrade}. Emits an {Upgraded} event."
      }
    },
    "version": 1
  },
  "userdoc": {
    "kind": "user",
    "methods": {},
    "version": 1
  }
}