{
  "contractName": "MarketPlace",
  "abi": [
    {
      "anonymous": false,
      "inputs": [
        {
          "indexed": false,
          "internalType": "address",
          "name": "previousAdmin",
          "type": "address"
        },
        {
          "indexed": false,
          "internalType": "address",
          "name": "newAdmin",
          "type": "address"
        }
      ],
      "name": "AdminChanged",
      "type": "event"
    },
    {
      "anonymous": false,
      "inputs": [
        {
          "indexed": true,
          "internalType": "address",
          "name": "beacon",
          "type": "address"
        }
      ],
      "name": "BeaconUpgraded",
      "type": "event"
    },
    {
      "anonymous": false,
      "inputs": [
        {
          "indexed": false,
          "internalType": "uint8",
          "name": "version",
          "type": "uint8"
        }
      ],
      "name": "Initialized",
      "type": "event"
    },
    {
      "anonymous": false,
      "inputs": [
        {
          "indexed": true,
          "internalType": "address",
          "name": "from",
          "type": "address"
        },
        {
          "indexed": true,
          "internalType": "address",
          "name": "to",
          "type": "address"
        },
        {
          "indexed": true,
          "internalType": "uint256",
          "name": "tokenId",
          "type": "uint256"
        },
        {
          "indexed": false,
          "internalType": "uint256",
          "name": "price",
          "type": "uint256"
        },
        {
          "indexed": false,
          "internalType": "bool",
          "name": "isKRW",
          "type": "bool"
        }
      ],
      "name": "NftTxHistory",
      "type": "event"
    },
    {
      "anonymous": false,
      "inputs": [
        {
          "indexed": true,
          "internalType": "address",
          "name": "previousOwner",
          "type": "address"
        },
        {
          "indexed": true,
          "internalType": "address",
          "name": "newOwner",
          "type": "address"
        }
      ],
      "name": "OwnershipTransferred",
      "type": "event"
    },
    {
      "anonymous": false,
      "inputs": [
        {
          "indexed": true,
          "internalType": "address",
          "name": "implementation",
          "type": "address"
        }
      ],
      "name": "Upgraded",
      "type": "event"
    },
    {
      "inputs": [],
      "name": "ImageNFTaddress",
      "outputs": [
        {
          "internalType": "contract ImageNFT",
          "name": "",
          "type": "address"
        }
      ],
      "stateMutability": "view",
      "type": "function",
      "constant": true
    },
    {
      "inputs": [
        {
          "internalType": "uint256",
          "name": "",
          "type": "uint256"
        }
      ],
      "name": "_auctions",
      "outputs": [
        {
          "internalType": "uint256",
          "name": "imageID",
          "type": "uint256"
        },
        {
          "internalType": "uint256",
          "name": "startBid",
          "type": "uint256"
        },
        {
          "internalType": "uint256",
          "name": "highestBid",
          "type": "uint256"
        },
        {
          "internalType": "uint256",
          "name": "endTime",
          "type": "uint256"
        },
        {
          "internalType": "address payable",
          "name": "winner",
          "type": "address"
        },
        {
          "internalType": "bool",
          "name": "ended",
          "type": "bool"
        },
        {
          "internalType": "bool",
          "name": "claimed",
          "type": "bool"
        },
        {
          "internalType": "bool",
          "name": "isKRW",
          "type": "bool"
        }
      ],
      "stateMutability": "view",
      "type": "function",
      "constant": true
    },
    {
      "inputs": [
        {
          "internalType": "uint256",
          "name": "",
          "type": "uint256"
        }
      ],
      "name": "_marts",
      "outputs": [
        {
          "internalType": "uint256",
          "name": "imageID",
          "type": "uint256"
        },
        {
          "internalType": "uint256",
          "name": "buyPrice",
          "type": "uint256"
        },
        {
          "internalType": "bool",
          "name": "isKRW",
          "type": "bool"
        }
      ],
      "stateMutability": "view",
      "type": "function",
      "constant": true
    },
    {
      "inputs": [
        {
          "internalType": "uint256",
          "name": "",
          "type": "uint256"
        }
      ],
      "name": "listPriceInfo",
      "outputs": [
        {
          "internalType": "bool",
          "name": "isKRW",
          "type": "bool"
        },
        {
          "internalType": "uint256",
          "name": "price",
          "type": "uint256"
        }
      ],
      "stateMutability": "view",
      "type": "function",
      "constant": true
    },
    {
      "inputs": [],
      "name": "owner",
      "outputs": [
        {
          "internalType": "address",
          "name": "",
          "type": "address"
        }
      ],
      "stateMutability": "view",
      "type": "function",
      "constant": true
    },
    {
      "inputs": [],
      "name": "proxiableUUID",
      "outputs": [
        {
          "internalType": "bytes32",
          "name": "",
          "type": "bytes32"
        }
      ],
      "stateMutability": "view",
      "type": "function",
      "constant": true
    },
    {
      "inputs": [],
      "name": "renounceOwnership",
      "outputs": [],
      "stateMutability": "nonpayable",
      "type": "function"
    },
    {
      "inputs": [
        {
          "internalType": "address",
          "name": "newOwner",
          "type": "address"
        }
      ],
      "name": "transferOwnership",
      "outputs": [],
      "stateMutability": "nonpayable",
      "type": "function"
    },
    {
      "inputs": [
        {
          "internalType": "address",
          "name": "newImplementation",
          "type": "address"
        }
      ],
      "name": "upgradeTo",
      "outputs": [],
      "stateMutability": "nonpayable",
      "type": "function"
    },
    {
      "inputs": [
        {
          "internalType": "address",
          "name": "newImplementation",
          "type": "address"
        },
        {
          "internalType": "bytes",
          "name": "data",
          "type": "bytes"
        }
      ],
      "name": "upgradeToAndCall",
      "outputs": [],
      "stateMutability": "payable",
      "type": "function",
      "payable": true
    },
    {
      "inputs": [
        {
          "internalType": "address",
          "name": "Imgnftcontract",
          "type": "address"
        }
      ],
      "name": "initialize",
      "outputs": [],
      "stateMutability": "nonpayable",
      "type": "function"
    },
    {
      "inputs": [
        {
          "internalType": "uint256",
          "name": "_tokenID",
          "type": "uint256"
        },
        {
          "internalType": "uint256",
          "name": "_minBid",
          "type": "uint256"
        },
        {
          "internalType": "uint256",
          "name": "_duration",
          "type": "uint256"
        },
        {
          "internalType": "bool",
          "name": "_isKRW",
          "type": "bool"
        }
      ],
      "name": "beginAuction",
      "outputs": [],
      "stateMutability": "nonpayable",
      "type": "function"
    },
    {
      "inputs": [
        {
          "internalType": "uint256",
          "name": "auctionID",
          "type": "uint256"
        },
        {
          "internalType": "uint256",
          "name": "newBid",
          "type": "uint256"
        }
      ],
      "name": "bid",
      "outputs": [],
      "stateMutability": "payable",
      "type": "function",
      "payable": true
    },
    {
      "inputs": [
        {
          "internalType": "uint256",
          "name": "auctionID",
          "type": "uint256"
        }
      ],
      "name": "endAuction",
      "outputs": [],
      "stateMutability": "payable",
      "type": "function",
      "payable": true
    },
    {
      "inputs": [
        {
          "internalType": "uint256",
          "name": "auctionID",
          "type": "uint256"
        },
        {
          "internalType": "uint256",
          "name": "newbid",
          "type": "uint256"
        }
      ],
      "name": "claim",
      "outputs": [],
      "stateMutability": "payable",
      "type": "function",
      "payable": true
    },
    {
      "inputs": [
        {
          "internalType": "uint256",
          "name": "_tokenID",
          "type": "uint256"
        },
        {
          "internalType": "uint256",
          "name": "_minBid",
          "type": "uint256"
        },
        {
          "internalType": "bool",
          "name": "_isKRW",
          "type": "bool"
        }
      ],
      "name": "beginMart",
      "outputs": [],
      "stateMutability": "nonpayable",
      "type": "function"
    },
    {
      "inputs": [
        {
          "internalType": "uint256",
          "name": "martID",
          "type": "uint256"
        }
      ],
      "name": "endBuy",
      "outputs": [],
      "stateMutability": "nonpayable",
      "type": "function"
    },
    {
      "inputs": [
        {
          "internalType": "uint256",
          "name": "martID",
          "type": "uint256"
        },
        {
          "internalType": "uint256",
          "name": "newBuy",
          "type": "uint256"
        }
      ],
      "name": "buy",
      "outputs": [],
      "stateMutability": "payable",
      "type": "function",
      "payable": true
    },
    {
      "inputs": [
        {
          "internalType": "uint256",
          "name": "MintID",
          "type": "uint256"
        },
        {
          "internalType": "uint256",
          "name": "newBid",
          "type": "uint256"
        }
      ],
      "name": "MintOwnerPay",
      "outputs": [],
      "stateMutability": "payable",
      "type": "function",
      "payable": true
    },
    {
      "inputs": [
        {
          "internalType": "uint256",
          "name": "index",
          "type": "uint256"
        }
      ],
      "name": "getBidders",
      "outputs": [
        {
          "components": [
            {
              "internalType": "address",
              "name": "addr",
              "type": "address"
            },
            {
              "internalType": "uint256",
              "name": "amount",
              "type": "uint256"
            }
          ],
          "internalType": "struct Lib.Bidder[]",
          "name": "",
          "type": "tuple[]"
        }
      ],
      "stateMutability": "view",
      "type": "function",
      "constant": true
    }
  ],
  "bytecode": "0x60a06040523073ffffffffffffffffffffffffffffffffffffffff1660809073ffffffffffffffffffffffffffffffffffffffff1681525034801561004357600080fd5b506080516148ae61007b60003960008181610520015281816105ae015281816106a80152818161073601526108b801526148ae6000f3fe60806040526004361061011f5760003560e01c80638a1eed30116100a0578063c349026311610064578063c3490263146103a3578063c4d66de8146103bf578063d2546cdc146103e8578063d6febde814610413578063f2fde38b1461042f5761011f565b80638a1eed30146102ee5780638da5cb5b1461030a578063b9a2de3a14610335578063bc0bbe8414610351578063be75b2ff1461037a5761011f565b806352d1902d116100e757806352d1902d1461022957806353a74cd614610254578063598647f81461027d578063682f4c1514610299578063715018a6146102d75761011f565b806314697ff61461012457806317dc6bf6146101635780633659cfe6146101a75780634f1ef286146101d05780634fa7b507146101ec575b600080fd5b34801561013057600080fd5b5061014b60048036038101906101469190613074565b610458565b60405161015a939291906130cb565b60405180910390f35b34801561016f57600080fd5b5061018a60048036038101906101859190613074565b61048f565b60405161019e989796959493929190613143565b60405180910390f35b3480156101b357600080fd5b506101ce60048036038101906101c991906131ff565b61051e565b005b6101ea60048036038101906101e59190613372565b6106a6565b005b3480156101f857600080fd5b50610213600480360381019061020e9190613074565b6107e2565b60405161022091906134ca565b60405180910390f35b34801561023557600080fd5b5061023e6108b4565b60405161024b9190613505565b60405180910390f35b34801561026057600080fd5b5061027b60048036038101906102769190613074565b61096d565b005b61029760048036038101906102929190613520565b610bca565b005b3480156102a557600080fd5b506102c060048036038101906102bb9190613074565b610e21565b6040516102ce929190613560565b60405180910390f35b3480156102e357600080fd5b506102ec610e52565b005b61030860048036038101906103039190613520565b610e66565b005b34801561031657600080fd5b5061031f611085565b60405161032c9190613598565b60405180910390f35b61034f600480360381019061034a9190613074565b6110af565b005b34801561035d57600080fd5b50610378600480360381019061037391906135df565b6114b3565b005b34801561038657600080fd5b506103a1600480360381019061039c9190613632565b6117dc565b005b6103bd60048036038101906103b89190613520565b611cea565b005b3480156103cb57600080fd5b506103e660048036038101906103e191906131ff565b612253565b005b3480156103f457600080fd5b506103fd6123db565b60405161040a91906136f8565b60405180910390f35b61042d60048036038101906104289190613520565b612401565b005b34801561043b57600080fd5b50610456600480360381019061045191906131ff565b6128ca565b005b60cb6020528060005260406000206000915090508060000154908060010154908060020160009054906101000a900460ff16905083565b60ca6020528060005260406000206000915090508060000154908060010154908060020154908060030154908060040160009054906101000a900473ffffffffffffffffffffffffffffffffffffffff16908060040160149054906101000a900460ff16908060040160159054906101000a900460ff16908060040160169054906101000a900460ff16905088565b7f000000000000000000000000000000000000000000000000000000000000000073ffffffffffffffffffffffffffffffffffffffff163073ffffffffffffffffffffffffffffffffffffffff16036105ac576040517f08c379a00000000000000000000000000000000000000000000000000000000081526004016105a390613796565b60405180910390fd5b7f000000000000000000000000000000000000000000000000000000000000000073ffffffffffffffffffffffffffffffffffffffff166105eb61294d565b73ffffffffffffffffffffffffffffffffffffffff1614610641576040517f08c379a000000000000000000000000000000000000000000000000000000000815260040161063890613828565b60405180910390fd5b61064a816129a4565b6106a381600067ffffffffffffffff81111561066957610668613247565b5b6040519080825280601f01601f19166020018201604052801561069b5781602001600182028036833780820191505090505b5060006129af565b50565b7f000000000000000000000000000000000000000000000000000000000000000073ffffffffffffffffffffffffffffffffffffffff163073ffffffffffffffffffffffffffffffffffffffff1603610734576040517f08c379a000000000000000000000000000000000000000000000000000000000815260040161072b90613796565b60405180910390fd5b7f000000000000000000000000000000000000000000000000000000000000000073ffffffffffffffffffffffffffffffffffffffff1661077361294d565b73ffffffffffffffffffffffffffffffffffffffff16146107c9576040517f08c379a00000000000000000000000000000000000000000000000000000000081526004016107c090613828565b60405180910390fd5b6107d2826129a4565b6107de828260016129af565b5050565b606060cd6000838152602001908152602001600020805480602002602001604051908101604052809291908181526020016000905b828210156108a957838290600052602060002090600202016040518060400160405290816000820160009054906101000a900473ffffffffffffffffffffffffffffffffffffffff1673ffffffffffffffffffffffffffffffffffffffff1673ffffffffffffffffffffffffffffffffffffffff16815260200160018201548152505081526020019060010190610817565b505050509050919050565b60007f000000000000000000000000000000000000000000000000000000000000000073ffffffffffffffffffffffffffffffffffffffff163073ffffffffffffffffffffffffffffffffffffffff1614610944576040517f08c379a000000000000000000000000000000000000000000000000000000000815260040161093b906138ba565b60405180910390fd5b7f360894a13ba1a3210667c828492db98dca3e2076cc3735a920a3ca505d382bbc60001b905090565b3373ffffffffffffffffffffffffffffffffffffffff1660c960009054906101000a900473ffffffffffffffffffffffffffffffffffffffff1673ffffffffffffffffffffffffffffffffffffffff16636352211e836040518263ffffffff1660e01b81526004016109df91906138da565b602060405180830381865afa1580156109fc573d6000803e3d6000fd5b505050506040513d601f19601f82011682018060405250810190610a20919061390a565b73ffffffffffffffffffffffffffffffffffffffff1614610a76576040517f08c379a0000000000000000000000000000000000000000000000000000000008152600401610a6d90613983565b60405180910390fd5b600060cb6000838152602001908152602001600020905060c960009054906101000a900473ffffffffffffffffffffffffffffffffffffffff1673ffffffffffffffffffffffffffffffffffffffff166382367b2d8360cc6000868152602001908152602001600020600101546040518363ffffffff1660e01b8152600401610b009291906139a3565b600060405180830381600087803b158015610b1a57600080fd5b505af1158015610b2e573d6000803e3d6000fd5b5050505060c960009054906101000a900473ffffffffffffffffffffffffffffffffffffffff1673ffffffffffffffffffffffffffffffffffffffff16633a1b3d31826000015460006040518363ffffffff1660e01b8152600401610b94929190613a43565b600060405180830381600087803b158015610bae57600080fd5b505af1158015610bc2573d6000803e3d6000fd5b505050505050565b600060ca600084815260200190815260200160002090508060040160149054906101000a900460ff1615610c33576040517f08c379a0000000000000000000000000000000000000000000000000000000008152600401610c2a90613ab8565b60405180910390fd5b80600201548211610c79576040517f08c379a0000000000000000000000000000000000000000000000000000000008152600401610c7090613b24565b60405180910390fd5b60c960009054906101000a900473ffffffffffffffffffffffffffffffffffffffff1673ffffffffffffffffffffffffffffffffffffffff166382367b2d8260000154846040518363ffffffff1660e01b8152600401610cda9291906139a3565b600060405180830381600087803b158015610cf457600080fd5b505af1158015610d08573d6000803e3d6000fd5b50505050338160040160006101000a81548173ffffffffffffffffffffffffffffffffffffffff021916908373ffffffffffffffffffffffffffffffffffffffff160217905550818160020181905550600060405180604001604052803373ffffffffffffffffffffffffffffffffffffffff16815260200184815250905060cd60008360000154815260200190815260200160002081908060018154018082558091505060019003906000526020600020906002020160009091909190915060008201518160000160006101000a81548173ffffffffffffffffffffffffffffffffffffffff021916908373ffffffffffffffffffffffffffffffffffffffff16021790555060208201518160010155505050505050565b60cc6020528060005260406000206000915090508060000160009054906101000a900460ff16908060010154905082565b610e5a612b1d565b610e646000612b9b565b565b600060c960009054906101000a900473ffffffffffffffffffffffffffffffffffffffff1673ffffffffffffffffffffffffffffffffffffffff1663a92aa026846040518263ffffffff1660e01b8152600401610ec391906138da565b600060405180830381865afa158015610ee0573d6000803e3d6000fd5b505050506040513d6000823e3d601f19601f82011682018060405250810190610f099190613dbb565b9050600060c960009054906101000a900473ffffffffffffffffffffffffffffffffffffffff1673ffffffffffffffffffffffffffffffffffffffff16636352211e856040518263ffffffff1660e01b8152600401610f6891906138da565b602060405180830381865afa158015610f85573d6000803e3d6000fd5b505050506040513d601f19601f82011682018060405250810190610fa9919061390a565b9050816060015173ffffffffffffffffffffffffffffffffffffffff166108fc60648460c0015186610fdb9190613e33565b610fe59190613ebc565b9081150290604051600060405180830381858888f19350505050158015611010573d6000803e3d6000fd5b508073ffffffffffffffffffffffffffffffffffffffff166108fc60648460c00151606461103e9190613eed565b866110499190613e33565b6110539190613ebc565b9081150290604051600060405180830381858888f1935050505015801561107e573d6000803e3d6000fd5b5050505050565b6000609760009054906101000a900473ffffffffffffffffffffffffffffffffffffffff16905090565b3373ffffffffffffffffffffffffffffffffffffffff1660c960009054906101000a900473ffffffffffffffffffffffffffffffffffffffff1673ffffffffffffffffffffffffffffffffffffffff16636352211e836040518263ffffffff1660e01b815260040161112191906138da565b602060405180830381865afa15801561113e573d6000803e3d6000fd5b505050506040513d601f19601f82011682018060405250810190611162919061390a565b73ffffffffffffffffffffffffffffffffffffffff16146111b8576040517f08c379a00000000000000000000000000000000000000000000000000000000081526004016111af90613983565b60405180910390fd5b600060ca600083815260200190815260200160002090508060030154421015611216576040517f08c379a000000000000000000000000000000000000000000000000000000000815260040161120d90613f6d565b60405180910390fd5b8060040160149054906101000a900460ff1615611268576040517f08c379a000000000000000000000000000000000000000000000000000000000815260040161125f90613fd9565b60405180910390fd5b3373ffffffffffffffffffffffffffffffffffffffff168160040160009054906101000a900473ffffffffffffffffffffffffffffffffffffffff1673ffffffffffffffffffffffffffffffffffffffff16036113fd5760c960009054906101000a900473ffffffffffffffffffffffffffffffffffffffff1673ffffffffffffffffffffffffffffffffffffffff166382367b2d8360cc6000868152602001908152602001600020600101546040518363ffffffff1660e01b81526004016113329291906139a3565b600060405180830381600087803b15801561134c57600080fd5b505af1158015611360573d6000803e3d6000fd5b5050505060c960009054906101000a900473ffffffffffffffffffffffffffffffffffffffff1673ffffffffffffffffffffffffffffffffffffffff16633a1b3d31826000015460006040518363ffffffff1660e01b81526004016113c6929190613a43565b600060405180830381600087803b1580156113e057600080fd5b505af11580156113f4573d6000803e3d6000fd5b50505050611492565b60c960009054906101000a900473ffffffffffffffffffffffffffffffffffffffff1673ffffffffffffffffffffffffffffffffffffffff16633a1b3d31826000015460036040518363ffffffff1660e01b815260040161145f929190613a43565b600060405180830381600087803b15801561147957600080fd5b505af115801561148d573d6000803e3d6000fd5b505050505b60018160040160146101000a81548160ff0219169083151502179055505050565b3373ffffffffffffffffffffffffffffffffffffffff1660c960009054906101000a900473ffffffffffffffffffffffffffffffffffffffff1673ffffffffffffffffffffffffffffffffffffffff16636352211e856040518263ffffffff1660e01b815260040161152591906138da565b602060405180830381865afa158015611542573d6000803e3d6000fd5b505050506040513d601f19601f82011682018060405250810190611566919061390a565b73ffffffffffffffffffffffffffffffffffffffff16146115bc576040517f08c379a00000000000000000000000000000000000000000000000000000000081526004016115b390614045565b60405180910390fd5b60c960009054906101000a900473ffffffffffffffffffffffffffffffffffffffff1673ffffffffffffffffffffffffffffffffffffffff16633a1b3d318460026040518363ffffffff1660e01b815260040161161a929190613a43565b600060405180830381600087803b15801561163457600080fd5b505af1158015611648573d6000803e3d6000fd5b5050505060c960009054906101000a900473ffffffffffffffffffffffffffffffffffffffff1673ffffffffffffffffffffffffffffffffffffffff166382367b2d84846040518363ffffffff1660e01b81526004016116a99291906139a3565b600060405180830381600087803b1580156116c357600080fd5b505af11580156116d7573d6000803e3d6000fd5b5050505060c960009054906101000a900473ffffffffffffffffffffffffffffffffffffffff1673ffffffffffffffffffffffffffffffffffffffff1663ec62b07e84836040518363ffffffff1660e01b8152600401611738929190614065565b600060405180830381600087803b15801561175257600080fd5b505af1158015611766573d6000803e3d6000fd5b505050506000604051806060016040528085815260200184815260200183151581525090508060cb6000868152602001908152602001600020600082015181600001556020820151816001015560408201518160020160006101000a81548160ff02191690831515021790555090505050505050565b83600060038111156117f1576117f06139cc565b5b60c960009054906101000a900473ffffffffffffffffffffffffffffffffffffffff1673ffffffffffffffffffffffffffffffffffffffff1663a92aa026836040518263ffffffff1660e01b815260040161184c91906138da565b600060405180830381865afa158015611869573d6000803e3d6000fd5b505050506040513d6000823e3d601f19601f820116820180604052508101906118929190613dbb565b610120015160038111156118a9576118a86139cc565b5b146118e9576040517f08c379a00000000000000000000000000000000000000000000000000000000081526004016118e0906140da565b60405180910390fd5b3373ffffffffffffffffffffffffffffffffffffffff1660c960009054906101000a900473ffffffffffffffffffffffffffffffffffffffff1673ffffffffffffffffffffffffffffffffffffffff16636352211e876040518263ffffffff1660e01b815260040161195b91906138da565b602060405180830381865afa158015611978573d6000803e3d6000fd5b505050506040513d601f19601f8201168201806040525081019061199c919061390a565b73ffffffffffffffffffffffffffffffffffffffff16146119f2576040517f08c379a00000000000000000000000000000000000000000000000000000000081526004016119e990614045565b60405180910390fd5b60c960009054906101000a900473ffffffffffffffffffffffffffffffffffffffff1673ffffffffffffffffffffffffffffffffffffffff16633a1b3d318660016040518363ffffffff1660e01b8152600401611a50929190613a43565b600060405180830381600087803b158015611a6a57600080fd5b505af1158015611a7e573d6000803e3d6000fd5b5050505060c960009054906101000a900473ffffffffffffffffffffffffffffffffffffffff1673ffffffffffffffffffffffffffffffffffffffff166382367b2d86866040518363ffffffff1660e01b8152600401611adf9291906139a3565b600060405180830381600087803b158015611af957600080fd5b505af1158015611b0d573d6000803e3d6000fd5b5050505060c960009054906101000a900473ffffffffffffffffffffffffffffffffffffffff1673ffffffffffffffffffffffffffffffffffffffff1663ec62b07e86846040518363ffffffff1660e01b8152600401611b6e929190614065565b600060405180830381600087803b158015611b8857600080fd5b505af1158015611b9c573d6000803e3d6000fd5b5050505060006040518061010001604052808781526020018681526020018681526020018581526020013373ffffffffffffffffffffffffffffffffffffffff16815260200160001515815260200160001515815260200184151581525090508060ca60008881526020019081526020016000206000820151816000015560208201518160010155604082015181600201556060820151816003015560808201518160040160006101000a81548173ffffffffffffffffffffffffffffffffffffffff021916908373ffffffffffffffffffffffffffffffffffffffff16021790555060a08201518160040160146101000a81548160ff02191690831515021790555060c08201518160040160156101000a81548160ff02191690831515021790555060e08201518160040160166101000a81548160ff021916908315150217905550905050505050505050565b600060ca60008481526020019081526020016000209050600060c960009054906101000a900473ffffffffffffffffffffffffffffffffffffffff1673ffffffffffffffffffffffffffffffffffffffff16636352211e856040518263ffffffff1660e01b8152600401611d5e91906138da565b602060405180830381865afa158015611d7b573d6000803e3d6000fd5b505050506040513d601f19601f82011682018060405250810190611d9f919061390a565b9050338260040160006101000a81548173ffffffffffffffffffffffffffffffffffffffff021916908373ffffffffffffffffffffffffffffffffffffffff1602179055508160040160149054906101000a900460ff16611e35576040517f08c379a0000000000000000000000000000000000000000000000000000000008152600401611e2c90614146565b60405180910390fd5b8160040160159054906101000a900460ff1615611e87576040517f08c379a0000000000000000000000000000000000000000000000000000000008152600401611e7e906141b2565b60405180910390fd5b600115158260040160169054906101000a900460ff161515036120285760c960009054906101000a900473ffffffffffffffffffffffffffffffffffffffff1673ffffffffffffffffffffffffffffffffffffffff16637192711f8360000154336040518363ffffffff1660e01b8152600401611f059291906141d2565b600060405180830381600087803b158015611f1f57600080fd5b505af1158015611f33573d6000803e3d6000fd5b5050505060c960009054906101000a900473ffffffffffffffffffffffffffffffffffffffff1673ffffffffffffffffffffffffffffffffffffffff16633a1b3d31836000015460006040518363ffffffff1660e01b8152600401611f99929190613a43565b600060405180830381600087803b158015611fb357600080fd5b505af1158015611fc7573d6000803e3d6000fd5b5050505060405180604001604052806001151581526020018481525060cc600086815260200190815260200160002060008201518160000160006101000a81548160ff021916908315150217905550602082015181600101559050506121d4565b600015158260040160169054906101000a900460ff161515036121d357612053826000015484610e66565b60c960009054906101000a900473ffffffffffffffffffffffffffffffffffffffff1673ffffffffffffffffffffffffffffffffffffffff16637192711f8360000154336040518363ffffffff1660e01b81526004016120b49291906141d2565b600060405180830381600087803b1580156120ce57600080fd5b505af11580156120e2573d6000803e3d6000fd5b5050505060c960009054906101000a900473ffffffffffffffffffffffffffffffffffffffff1673ffffffffffffffffffffffffffffffffffffffff16633a1b3d31836000015460006040518363ffffffff1660e01b8152600401612148929190613a43565b600060405180830381600087803b15801561216257600080fd5b505af1158015612176573d6000803e3d6000fd5b5050505060405180604001604052806000151581526020018481525060cc600086815260200190815260200160002060008201518160000160006101000a81548160ff021916908315150217905550602082015181600101559050505b5b833373ffffffffffffffffffffffffffffffffffffffff168273ffffffffffffffffffffffffffffffffffffffff167f56d8e0bacacfc4fc0fd4daf36b0805fbcf586b3222a83c74bbed34ac30ef6b43868660040160169054906101000a900460ff16604051612245929190614065565b60405180910390a450505050565b60008060019054906101000a900460ff161590508080156122845750600160008054906101000a900460ff1660ff16105b806122b1575061229330612c61565b1580156122b05750600160008054906101000a900460ff1660ff16145b5b6122f0576040517f08c379a00000000000000000000000000000000000000000000000000000000081526004016122e79061426d565b60405180910390fd5b60016000806101000a81548160ff021916908360ff160217905550801561232d576001600060016101000a81548160ff0219169083151502179055505b612335612c84565b61233d612cdd565b8160c960006101000a81548173ffffffffffffffffffffffffffffffffffffffff021916908373ffffffffffffffffffffffffffffffffffffffff16021790555080156123d75760008060016101000a81548160ff0219169083151502179055507f7f26b83ff96e1f2b6a682f133852f6798a09c465da95921460cefb384740249860016040516123ce91906142d5565b60405180910390a15b5050565b60c960009054906101000a900473ffffffffffffffffffffffffffffffffffffffff1681565b600060cb60008481526020019081526020016000209050600060c960009054906101000a900473ffffffffffffffffffffffffffffffffffffffff1673ffffffffffffffffffffffffffffffffffffffff16636352211e856040518263ffffffff1660e01b815260040161247591906138da565b602060405180830381865afa158015612492573d6000803e3d6000fd5b505050506040513d601f19601f820116820180604052508101906124b6919061390a565b9050816001015483146124fe576040517f08c379a00000000000000000000000000000000000000000000000000000000081526004016124f59061433c565b60405180910390fd5b600115158260020160009054906101000a900460ff1615150361269f5760405180604001604052806001151581526020018481525060cc600086815260200190815260200160002060008201518160000160006101000a81548160ff0219169083151502179055506020820151816001015590505060c960009054906101000a900473ffffffffffffffffffffffffffffffffffffffff1673ffffffffffffffffffffffffffffffffffffffff16637192711f8360000154336040518363ffffffff1660e01b81526004016125d49291906141d2565b600060405180830381600087803b1580156125ee57600080fd5b505af1158015612602573d6000803e3d6000fd5b5050505060c960009054906101000a900473ffffffffffffffffffffffffffffffffffffffff1673ffffffffffffffffffffffffffffffffffffffff16633a1b3d31836000015460006040518363ffffffff1660e01b8152600401612668929190613a43565b600060405180830381600087803b15801561268257600080fd5b505af1158015612696573d6000803e3d6000fd5b5050505061284b565b600015158260020160009054906101000a900460ff1615150361284a576126ca826000015484610e66565b60c960009054906101000a900473ffffffffffffffffffffffffffffffffffffffff1673ffffffffffffffffffffffffffffffffffffffff16637192711f8360000154336040518363ffffffff1660e01b815260040161272b9291906141d2565b600060405180830381600087803b15801561274557600080fd5b505af1158015612759573d6000803e3d6000fd5b5050505060c960009054906101000a900473ffffffffffffffffffffffffffffffffffffffff1673ffffffffffffffffffffffffffffffffffffffff16633a1b3d31836000015460006040518363ffffffff1660e01b81526004016127bf929190613a43565b600060405180830381600087803b1580156127d957600080fd5b505af11580156127ed573d6000803e3d6000fd5b5050505060405180604001604052806000151581526020018481525060cc600086815260200190815260200160002060008201518160000160006101000a81548160ff021916908315150217905550602082015181600101559050505b5b833373ffffffffffffffffffffffffffffffffffffffff168273ffffffffffffffffffffffffffffffffffffffff167f56d8e0bacacfc4fc0fd4daf36b0805fbcf586b3222a83c74bbed34ac30ef6b43868660020160009054906101000a900460ff166040516128bc929190614065565b60405180910390a450505050565b6128d2612b1d565b600073ffffffffffffffffffffffffffffffffffffffff168173ffffffffffffffffffffffffffffffffffffffff1603612941576040517f08c379a0000000000000000000000000000000000000000000000000000000008152600401612938906143ce565b60405180910390fd5b61294a81612b9b565b50565b600061297b7f360894a13ba1a3210667c828492db98dca3e2076cc3735a920a3ca505d382bbc60001b612d2e565b60000160009054906101000a900473ffffffffffffffffffffffffffffffffffffffff16905090565b6129ac612b1d565b50565b6129db7f4910fdfa16fed3260ed0e7147f7cc6da11a60208b5b9406d12a635614ffd914360001b612d38565b60000160009054906101000a900460ff16156129ff576129fa83612d42565b612b18565b8273ffffffffffffffffffffffffffffffffffffffff166352d1902d6040518163ffffffff1660e01b8152600401602060405180830381865afa925050508015612a6757506040513d601f19601f82011682018060405250810190612a64919061441a565b60015b612aa6576040517f08c379a0000000000000000000000000000000000000000000000000000000008152600401612a9d906144b9565b60405180910390fd5b7f360894a13ba1a3210667c828492db98dca3e2076cc3735a920a3ca505d382bbc60001b8114612b0b576040517f08c379a0000000000000000000000000000000000000000000000000000000008152600401612b029061454b565b60405180910390fd5b50612b17838383612dfb565b5b505050565b612b25612e27565b73ffffffffffffffffffffffffffffffffffffffff16612b43611085565b73ffffffffffffffffffffffffffffffffffffffff1614612b99576040517f08c379a0000000000000000000000000000000000000000000000000000000008152600401612b90906145b7565b60405180910390fd5b565b6000609760009054906101000a900473ffffffffffffffffffffffffffffffffffffffff16905081609760006101000a81548173ffffffffffffffffffffffffffffffffffffffff021916908373ffffffffffffffffffffffffffffffffffffffff1602179055508173ffffffffffffffffffffffffffffffffffffffff168173ffffffffffffffffffffffffffffffffffffffff167f8be0079c531659141344cd1fd0a4f28419497f9722a3daafe3b4186f6b6457e060405160405180910390a35050565b6000808273ffffffffffffffffffffffffffffffffffffffff163b119050919050565b600060019054906101000a900460ff16612cd3576040517f08c379a0000000000000000000000000000000000000000000000000000000008152600401612cca90614649565b60405180910390fd5b612cdb612e2f565b565b600060019054906101000a900460ff16612d2c576040517f08c379a0000000000000000000000000000000000000000000000000000000008152600401612d2390614649565b60405180910390fd5b565b6000819050919050565b6000819050919050565b612d4b81612c61565b612d8a576040517f08c379a0000000000000000000000000000000000000000000000000000000008152600401612d81906146db565b60405180910390fd5b80612db77f360894a13ba1a3210667c828492db98dca3e2076cc3735a920a3ca505d382bbc60001b612d2e565b60000160006101000a81548173ffffffffffffffffffffffffffffffffffffffff021916908373ffffffffffffffffffffffffffffffffffffffff16021790555050565b612e0483612e90565b600082511180612e115750805b15612e2257612e208383612edf565b505b505050565b600033905090565b600060019054906101000a900460ff16612e7e576040517f08c379a0000000000000000000000000000000000000000000000000000000008152600401612e7590614649565b60405180910390fd5b612e8e612e89612e27565b612b9b565b565b612e9981612d42565b8073ffffffffffffffffffffffffffffffffffffffff167fbc7cd75a20ee27fd9adebab32041f755214dbc6bffa90cc0225b39da2e5c2d3b60405160405180910390a250565b6060612eea83612c61565b612f29576040517f08c379a0000000000000000000000000000000000000000000000000000000008152600401612f209061476d565b60405180910390fd5b6000808473ffffffffffffffffffffffffffffffffffffffff1684604051612f5191906147d4565b600060405180830381855af49150503d8060008114612f8c576040519150601f19603f3d011682016040523d82523d6000602084013e612f91565b606091505b5091509150612fb9828260405180606001604052806027815260200161485260279139612fc3565b9250505092915050565b60608315612fd357829050613023565b600083511115612fe65782518084602001fd5b816040517f08c379a000000000000000000000000000000000000000000000000000000000815260040161301a919061482f565b60405180910390fd5b9392505050565b6000604051905090565b600080fd5b600080fd5b6000819050919050565b6130518161303e565b811461305c57600080fd5b50565b60008135905061306e81613048565b92915050565b60006020828403121561308a57613089613034565b5b60006130988482850161305f565b91505092915050565b6130aa8161303e565b82525050565b60008115159050919050565b6130c5816130b0565b82525050565b60006060820190506130e060008301866130a1565b6130ed60208301856130a1565b6130fa60408301846130bc565b949350505050565b600073ffffffffffffffffffffffffffffffffffffffff82169050919050565b600061312d82613102565b9050919050565b61313d81613122565b82525050565b600061010082019050613159600083018b6130a1565b613166602083018a6130a1565b61317360408301896130a1565b61318060608301886130a1565b61318d6080830187613134565b61319a60a08301866130bc565b6131a760c08301856130bc565b6131b460e08301846130bc565b9998505050505050505050565b60006131cc82613102565b9050919050565b6131dc816131c1565b81146131e757600080fd5b50565b6000813590506131f9816131d3565b92915050565b60006020828403121561321557613214613034565b5b6000613223848285016131ea565b91505092915050565b600080fd5b600080fd5b6000601f19601f8301169050919050565b7f4e487b7100000000000000000000000000000000000000000000000000000000600052604160045260246000fd5b61327f82613236565b810181811067ffffffffffffffff8211171561329e5761329d613247565b5b80604052505050565b60006132b161302a565b90506132bd8282613276565b919050565b600067ffffffffffffffff8211156132dd576132dc613247565b5b6132e682613236565b9050602081019050919050565b82818337600083830152505050565b6000613315613310846132c2565b6132a7565b90508281526020810184848401111561333157613330613231565b5b61333c8482856132f3565b509392505050565b600082601f8301126133595761335861322c565b5b8135613369848260208601613302565b91505092915050565b6000806040838503121561338957613388613034565b5b6000613397858286016131ea565b925050602083013567ffffffffffffffff8111156133b8576133b7613039565b5b6133c485828601613344565b9150509250929050565b600081519050919050565b600082825260208201905092915050565b6000819050602082019050919050565b613403816131c1565b82525050565b6134128161303e565b82525050565b60408201600082015161342e60008501826133fa565b5060208201516134416020850182613409565b50505050565b60006134538383613418565b60408301905092915050565b6000602082019050919050565b6000613477826133ce565b61348181856133d9565b935061348c836133ea565b8060005b838110156134bd5781516134a48882613447565b97506134af8361345f565b925050600181019050613490565b5085935050505092915050565b600060208201905081810360008301526134e4818461346c565b905092915050565b6000819050919050565b6134ff816134ec565b82525050565b600060208201905061351a60008301846134f6565b92915050565b6000806040838503121561353757613536613034565b5b60006135458582860161305f565b92505060206135568582860161305f565b9150509250929050565b600060408201905061357560008301856130bc565b61358260208301846130a1565b9392505050565b613592816131c1565b82525050565b60006020820190506135ad6000830184613589565b92915050565b6135bc816130b0565b81146135c757600080fd5b50565b6000813590506135d9816135b3565b92915050565b6000806000606084860312156135f8576135f7613034565b5b60006136068682870161305f565b93505060206136178682870161305f565b9250506040613628868287016135ca565b9150509250925092565b6000806000806080858703121561364c5761364b613034565b5b600061365a8782880161305f565b945050602061366b8782880161305f565b935050604061367c8782880161305f565b925050606061368d878288016135ca565b91505092959194509250565b6000819050919050565b60006136be6136b96136b484613102565b613699565b613102565b9050919050565b60006136d0826136a3565b9050919050565b60006136e2826136c5565b9050919050565b6136f2816136d7565b82525050565b600060208201905061370d60008301846136e9565b92915050565b600082825260208201905092915050565b7f46756e6374696f6e206d7573742062652063616c6c6564207468726f7567682060008201527f64656c656761746563616c6c0000000000000000000000000000000000000000602082015250565b6000613780602c83613713565b915061378b82613724565b604082019050919050565b600060208201905081810360008301526137af81613773565b9050919050565b7f46756e6374696f6e206d7573742062652063616c6c6564207468726f7567682060008201527f6163746976652070726f78790000000000000000000000000000000000000000602082015250565b6000613812602c83613713565b915061381d826137b6565b604082019050919050565b6000602082019050818103600083015261384181613805565b9050919050565b7f555550535570677261646561626c653a206d757374206e6f742062652063616c60008201527f6c6564207468726f7567682064656c656761746563616c6c0000000000000000602082015250565b60006138a4603883613713565b91506138af82613848565b604082019050919050565b600060208201905081810360008301526138d381613897565b9050919050565b60006020820190506138ef60008301846130a1565b92915050565b600081519050613904816131d3565b92915050565b6000602082840312156139205761391f613034565b5b600061392e848285016138f5565b91505092915050565b7f4f6e6c79204f776e65722043616e20456e6420612041756374696f6e2e000000600082015250565b600061396d601d83613713565b915061397882613937565b602082019050919050565b6000602082019050818103600083015261399c81613960565b9050919050565b60006040820190506139b860008301856130a1565b6139c560208301846130a1565b9392505050565b7f4e487b7100000000000000000000000000000000000000000000000000000000600052602160045260246000fd5b60048110613a0c57613a0b6139cc565b5b50565b6000819050613a1d826139fb565b919050565b6000613a2d82613a0f565b9050919050565b613a3d81613a22565b82525050565b6000604082019050613a5860008301856130a1565b613a656020830184613a34565b9392505050565b7f41756374696f6e20616c726561647920656e6465642e00000000000000000000600082015250565b6000613aa2601683613713565b9150613aad82613a6c565b602082019050919050565b60006020820190508181036000830152613ad181613a95565b9050919050565b7f4c6f776572206269643f204a6f6b696e672e0000000000000000000000000000600082015250565b6000613b0e601283613713565b9150613b1982613ad8565b602082019050919050565b60006020820190508181036000830152613b3d81613b01565b9050919050565b600080fd5b600080fd5b600067ffffffffffffffff821115613b6957613b68613247565b5b613b7282613236565b9050602081019050919050565b60005b83811015613b9d578082015181840152602081019050613b82565b83811115613bac576000848401525b50505050565b6000613bc5613bc084613b4e565b6132a7565b905082815260208101848484011115613be157613be0613231565b5b613bec848285613b7f565b509392505050565b600082601f830112613c0957613c0861322c565b5b8151613c19848260208601613bb2565b91505092915050565b600081519050613c3181613048565b92915050565b600081519050613c46816135b3565b92915050565b60048110613c5957600080fd5b50565b600081519050613c6b81613c4c565b92915050565b60006101408284031215613c8857613c87613b44565b5b613c936101406132a7565b9050600082015167ffffffffffffffff811115613cb357613cb2613b49565b5b613cbf84828501613bf4565b600083015250602082015167ffffffffffffffff811115613ce357613ce2613b49565b5b613cef84828501613bf4565b602083015250604082015167ffffffffffffffff811115613d1357613d12613b49565b5b613d1f84828501613bf4565b6040830152506060613d33848285016138f5565b6060830152506080613d47848285016138f5565b60808301525060a0613d5b84828501613c22565b60a08301525060c0613d6f84828501613c22565b60c08301525060e0613d8384828501613c22565b60e083015250610100613d9884828501613c37565b61010083015250610120613dae84828501613c5c565b6101208301525092915050565b600060208284031215613dd157613dd0613034565b5b600082015167ffffffffffffffff811115613def57613dee613039565b5b613dfb84828501613c71565b91505092915050565b7f4e487b7100000000000000000000000000000000000000000000000000000000600052601160045260246000fd5b6000613e3e8261303e565b9150613e498361303e565b9250817fffffffffffffffffffffffffffffffffffffffffffffffffffffffffffffffff0483118215151615613e8257613e81613e04565b5b828202905092915050565b7f4e487b7100000000000000000000000000000000000000000000000000000000600052601260045260246000fd5b6000613ec78261303e565b9150613ed28361303e565b925082613ee257613ee1613e8d565b5b828204905092915050565b6000613ef88261303e565b9150613f038361303e565b925082821015613f1657613f15613e04565b5b828203905092915050565b7f4e6f7420656e642074696d652e00000000000000000000000000000000000000600082015250565b6000613f57600d83613713565b9150613f6282613f21565b602082019050919050565b60006020820190508181036000830152613f8681613f4a565b9050919050565b7f416c726561647920456e6465642e000000000000000000000000000000000000600082015250565b6000613fc3600e83613713565b9150613fce82613f8d565b602082019050919050565b60006020820190508181036000830152613ff281613fb6565b9050919050565b7f4f6e6c79204f776e65722043616e000000000000000000000000000000000000600082015250565b600061402f600e83613713565b915061403a82613ff9565b602082019050919050565b6000602082019050818103600083015261405e81614022565b9050919050565b600060408201905061407a60008301856130a1565b61408760208301846130bc565b9392505050565b7f416c7265616479206f6e2061756374696f6e2e00000000000000000000000000600082015250565b60006140c4601383613713565b91506140cf8261408e565b602082019050919050565b600060208201905081810360008301526140f3816140b7565b9050919050565b7f41756374696f6e206e6f7420656e646564207965742e00000000000000000000600082015250565b6000614130601683613713565b915061413b826140fa565b602082019050919050565b6000602082019050818103600083015261415f81614123565b9050919050565b7f41756374696f6e20616c726561647920636c61696d65642e0000000000000000600082015250565b600061419c601883613713565b91506141a782614166565b602082019050919050565b600060208201905081810360008301526141cb8161418f565b9050919050565b60006040820190506141e760008301856130a1565b6141f46020830184613589565b9392505050565b7f496e697469616c697a61626c653a20636f6e747261637420697320616c72656160008201527f647920696e697469616c697a6564000000000000000000000000000000000000602082015250565b6000614257602e83613713565b9150614262826141fb565b604082019050919050565b600060208201905081810360008301526142868161424a565b9050919050565b6000819050919050565b600060ff82169050919050565b60006142bf6142ba6142b58461428d565b613699565b614297565b9050919050565b6142cf816142a4565b82525050565b60006020820190506142ea60008301846142c6565b92915050565b7f204a6f6b696e672e000000000000000000000000000000000000000000000000600082015250565b6000614326600883613713565b9150614331826142f0565b602082019050919050565b6000602082019050818103600083015261435581614319565b9050919050565b7f4f776e61626c653a206e6577206f776e657220697320746865207a65726f206160008201527f6464726573730000000000000000000000000000000000000000000000000000602082015250565b60006143b8602683613713565b91506143c38261435c565b604082019050919050565b600060208201905081810360008301526143e7816143ab565b9050919050565b6143f7816134ec565b811461440257600080fd5b50565b600081519050614414816143ee565b92915050565b6000602082840312156144305761442f613034565b5b600061443e84828501614405565b91505092915050565b7f45524331393637557067726164653a206e657720696d706c656d656e7461746960008201527f6f6e206973206e6f742055555053000000000000000000000000000000000000602082015250565b60006144a3602e83613713565b91506144ae82614447565b604082019050919050565b600060208201905081810360008301526144d281614496565b9050919050565b7f45524331393637557067726164653a20756e737570706f727465642070726f7860008201527f6961626c65555549440000000000000000000000000000000000000000000000602082015250565b6000614535602983613713565b9150614540826144d9565b604082019050919050565b6000602082019050818103600083015261456481614528565b9050919050565b7f4f776e61626c653a2063616c6c6572206973206e6f7420746865206f776e6572600082015250565b60006145a1602083613713565b91506145ac8261456b565b602082019050919050565b600060208201905081810360008301526145d081614594565b9050919050565b7f496e697469616c697a61626c653a20636f6e7472616374206973206e6f74206960008201527f6e697469616c697a696e67000000000000000000000000000000000000000000602082015250565b6000614633602b83613713565b915061463e826145d7565b604082019050919050565b6000602082019050818103600083015261466281614626565b9050919050565b7f455243313936373a206e657720696d706c656d656e746174696f6e206973206e60008201527f6f74206120636f6e747261637400000000000000000000000000000000000000602082015250565b60006146c5602d83613713565b91506146d082614669565b604082019050919050565b600060208201905081810360008301526146f4816146b8565b9050919050565b7f416464726573733a2064656c65676174652063616c6c20746f206e6f6e2d636f60008201527f6e74726163740000000000000000000000000000000000000000000000000000602082015250565b6000614757602683613713565b9150614762826146fb565b604082019050919050565b600060208201905081810360008301526147868161474a565b9050919050565b600081519050919050565b600081905092915050565b60006147ae8261478d565b6147b88185614798565b93506147c8818560208601613b7f565b80840191505092915050565b60006147e082846147a3565b915081905092915050565b600081519050919050565b6000614801826147eb565b61480b8185613713565b935061481b818560208601613b7f565b61482481613236565b840191505092915050565b6000602082019050818103600083015261484981846147f6565b90509291505056fe416464726573733a206c6f772d6c6576656c2064656c65676174652063616c6c206661696c6564a264697066735822122091d77820d368d1ecb30d64528bf84c53fb8a37165adfc95bdddea42b555be52664736f6c634300080f0033",
  "immutableReferences": {
    "702": [
      {
        "length": 32,
        "start": 1312
      },
      {
        "length": 32,
        "start": 1454
      },
      {
        "length": 32,
        "start": 1704
      },
      {
        "length": 32,
        "start": 1846
      },
      {
        "length": 32,
        "start": 2232
      }
    ]
  },
  "source": "// SPDX-License-Identifier: MIT\npragma solidity ^0.8.9;\n\nimport \"@openzeppelin/contracts-upgradeable/proxy/utils/Initializable.sol\";\nimport \"@openzeppelin/contracts-upgradeable/proxy/utils/UUPSUpgradeable.sol\";\n\nimport \"@openzeppelin/contracts-upgradeable/access/OwnableUpgradeable.sol\";\nimport \"./Lib.sol\";\nimport \"./ImageNFT.sol\";\n\ncontract MarketPlace is Initializable, UUPSUpgradeable, OwnableUpgradeable {\n  /// @custom:oz-upgrades-unsafe-allow constructor\n  ImageNFT public ImageNFTaddress;\n\n  event NftTxHistory(\n    address indexed from,\n    address indexed to,\n    uint256 indexed tokenId,\n    uint256 price,\n    bool isKRW\n  );\n\n  function initialize(address Imgnftcontract) public initializer {\n    __Ownable_init();\n    __UUPSUpgradeable_init();\n    ImageNFTaddress = ImageNFT(Imgnftcontract);\n  }\n\n  function _authorizeUpgrade(address newImplementation)\n    internal\n    override\n    onlyOwner\n  {}\n\n  modifier notOnBid(uint256 _tokenID) {\n    require(\n      ImageNFTaddress.ImageDate(_tokenID).status == Lib.Status.OffBid,\n      \"Already on auction.\"\n    );\n    _;\n  }\n\n  //\n  mapping(uint256 => Lib.Auction) public _auctions;\n  //\n  mapping(uint256 => Lib.Mart) public _marts;\n  //\n  mapping(uint256 => Lib.prices) public listPriceInfo;\n  mapping(uint256 => Lib.Bidder[]) internal _bidders;\n\n  //\n  function beginAuction(\n    uint256 _tokenID,\n    uint256 _minBid,\n    uint256 _duration,\n    bool _isKRW\n  ) external notOnBid(_tokenID) {\n    //   \n    require(ImageNFTaddress.ownerOf(_tokenID) == msg.sender, \"Only Owner Can\");\n    ImageNFTaddress.updateStatus(_tokenID, Lib.Status.OnBid);\n    ImageNFTaddress.updatePrice(_tokenID, _minBid);\n    ImageNFTaddress.updateKRW(_tokenID, _isKRW);\n    Lib.Auction memory newAuction = Lib.Auction(\n      _tokenID,\n      _minBid,\n      _minBid,\n      _duration,\n      payable(msg.sender),\n      false,\n      false,\n      _isKRW\n    );\n    _auctions[_tokenID] = newAuction;\n  }\n\n  //\n  function bid(uint256 auctionID, uint256 newBid) external payable {\n    Lib.Auction storage auction = _auctions[auctionID];\n    //  \n    require(!auction.ended, \"Auction already ended.\");\n    require(newBid > auction.highestBid, \"Lower bid? Joking.\");\n    ImageNFTaddress.updatePrice(auction.imageID, newBid);\n    auction.winner = payable(msg.sender);\n    auction.highestBid = newBid;\n    Lib.Bidder memory bidder = Lib.Bidder({addr: msg.sender, amount: newBid});\n    _bidders[auction.imageID].push(bidder);\n  }\n\n  //\n  function endAuction(uint256 auctionID) external payable {\n    require(\n      ImageNFTaddress.ownerOf(auctionID) == msg.sender,\n      \"Only Owner Can End a Auction.\"\n    );\n\n    Lib.Auction storage auction = _auctions[auctionID];\n\n    //       \n    require(block.timestamp >= auction.endTime, \"Not end time.\");\n    //  false \n    require(!auction.ended, \"Already Ended.\");\n\n    if (auction.winner == msg.sender) {\n      ImageNFTaddress.updatePrice(auctionID, listPriceInfo[auctionID].price);\n      ImageNFTaddress.updateStatus(auction.imageID, Lib.Status.OffBid);\n    } else {\n      ImageNFTaddress.updateStatus(auction.imageID, Lib.Status.WaittingClaim);\n    }\n    auction.ended = true;\n  }\n\n  //\n  function claim(uint256 auctionID, uint256 newbid) external payable {\n    Lib.Auction storage auction = _auctions[auctionID];\n    address existingOwner = ImageNFTaddress.ownerOf(auctionID);\n    auction.winner = payable(msg.sender);\n    //  \n    require(auction.ended, \"Auction not ended yet.\");\n    //   \n    require(!auction.claimed, \"Auction already claimed.\");\n    //     \n    // require(auction.winner == msg.sender, \"Can only be claimed by winner.\");\n    if (auction.isKRW == true) {\n      ImageNFTaddress.updateOwner(auction.imageID, msg.sender);\n      ImageNFTaddress.updateStatus(auction.imageID, Lib.Status.OffBid);\n      listPriceInfo[auctionID] = Lib.prices(true, newbid);\n    } else if (auction.isKRW == false) {\n      MintOwnerPay(auction.imageID, newbid);\n      ImageNFTaddress.updateOwner(auction.imageID, msg.sender);\n      ImageNFTaddress.updateStatus(auction.imageID, Lib.Status.OffBid);\n      listPriceInfo[auctionID] = Lib.prices(false, newbid);\n    }\n    emit NftTxHistory(\n      existingOwner,\n      msg.sender,\n      auctionID,\n      newbid,\n      auction.isKRW\n    );\n  }\n\n  //\n  function beginMart(\n    uint256 _tokenID,\n    uint256 _minBid,\n    bool _isKRW\n  ) external {\n    //    \n    require(ImageNFTaddress.ownerOf(_tokenID) == msg.sender, \"Only Owner Can\");\n\n    ImageNFTaddress.updateStatus(_tokenID, Lib.Status.OnBuy);\n    ImageNFTaddress.updatePrice(_tokenID, _minBid);\n    ImageNFTaddress.updateKRW(_tokenID, _isKRW);\n    Lib.Mart memory newMart = Lib.Mart(_tokenID, _minBid, _isKRW);\n    _marts[_tokenID] = newMart;\n  }\n\n  //\n  function endBuy(uint256 martID) external {\n    //     \n    require(\n      ImageNFTaddress.ownerOf(martID) == msg.sender,\n      \"Only Owner Can End a Auction.\"\n    );\n\n    Lib.Mart storage mart = _marts[martID];\n    ImageNFTaddress.updatePrice(martID, listPriceInfo[martID].price);\n    ImageNFTaddress.updateStatus(mart.imageID, Lib.Status.OffBid);\n  }\n\n  //\n  function buy(uint256 martID, uint256 newBuy) external payable {\n    Lib.Mart storage mart = _marts[martID];\n    address existingOwner = ImageNFTaddress.ownerOf(martID);\n    //   \n    require(newBuy == mart.buyPrice, \" Joking.\");\n    if (mart.isKRW == true) {\n      listPriceInfo[martID] = Lib.prices(true, newBuy);\n      ImageNFTaddress.updateOwner(mart.imageID, msg.sender);\n      ImageNFTaddress.updateStatus(mart.imageID, Lib.Status.OffBid);\n    } else if (mart.isKRW == false) {\n      MintOwnerPay(mart.imageID, newBuy);\n      ImageNFTaddress.updateOwner(mart.imageID, msg.sender);\n      ImageNFTaddress.updateStatus(mart.imageID, Lib.Status.OffBid);\n      listPriceInfo[martID] = Lib.prices(false, newBuy);\n    }\n    emit NftTxHistory(existingOwner, msg.sender, martID, newBuy, mart.isKRW);\n  }\n\n  //\n  function MintOwnerPay(uint256 MintID, uint256 newBid) public payable {\n    Lib.Image memory imagedata = ImageNFTaddress.ImageDate(MintID);\n\n    address owner = ImageNFTaddress.ownerOf(MintID);\n    // \n    payable(imagedata.mintedBy).transfer(\n      (newBid * (imagedata.royalties)) / (100)\n    );\n    // \n    payable(owner).transfer((newBid * ((100) - imagedata.royalties)) / (100));\n  }\n\n  function getBidders(uint256 index)\n    external\n    view\n    returns (Lib.Bidder[] memory)\n  {\n    return (_bidders[index]);\n  }\n}\n",
  "sourcePath": "/Users/hangyeonghyeon/Desktop/WNFT/contracts/MarketPlace.sol",
  "compiler": {
    "name": "solc",
    "version": "0.8.15+commit.e14f2714.Emscripten.clang"
  },
  "schemaVersion": "3.4.6",
  "updatedAt": "2022-08-02T06:21:53.501Z",
  "networkType": "ethereum",
  "devdoc": {
    "kind": "dev",
    "methods": {
      "owner()": {
        "details": "Returns the address of the current owner."
      },
      "proxiableUUID()": {
        "details": "Implementation of the ERC1822 {proxiableUUID} function. This returns the storage slot used by the implementation. It is used to validate that the this implementation remains valid after an upgrade. IMPORTANT: A proxy pointing at a proxiable contract should not be considered proxiable itself, because this risks bricking a proxy that upgrades to it, by delegating to itself until out of gas. Thus it is critical that this function revert if invoked through a proxy. This is guaranteed by the `notDelegated` modifier."
      },
      "renounceOwnership()": {
        "details": "Leaves the contract without owner. It will not be possible to call `onlyOwner` functions anymore. Can only be called by the current owner. NOTE: Renouncing ownership will leave the contract without an owner, thereby removing any functionality that is only available to the owner."
      },
      "transferOwnership(address)": {
        "details": "Transfers ownership of the contract to a new account (`newOwner`). Can only be called by the current owner."
      },
      "upgradeTo(address)": {
        "details": "Upgrade the implementation of the proxy to `newImplementation`. Calls {_authorizeUpgrade}. Emits an {Upgraded} event."
      },
      "upgradeToAndCall(address,bytes)": {
        "details": "Upgrade the implementation of the proxy to `newImplementation`, and subsequently execute the function call encoded in `data`. Calls {_authorizeUpgrade}. Emits an {Upgraded} event."
      }
    },
    "stateVariables": {
      "ImageNFTaddress": {
        "custom:oz-upgrades-unsafe-allow": "constructor"
      }
    },
    "version": 1
  },
  "userdoc": {
    "kind": "user",
    "methods": {},
    "version": 1
  }
}